:020000040802F0
:1000000028AE002075BC02088D0303089DBC0208C1
:1000100000000000000000000000000000000000E0
:10002000000000000000000000000000A1BA02086B
:10003000000000000000000041BA020805EF0208BD
:1000400035BC020835BC020835BC020835BC0208C4
:1000500035BC020835BC020835BC020835BC0208B4
:1000600035BC020835BC020835BC020835BC0208A4
:1000700035BC020835BC020835BC020835BC020894
:1000800035BC020835BC020835BC020835BC020884
:1000900035BC020835BC020835BC020835BC020874
:1000A00035BC020835BC020835BC020835BC020864
:1000B00035BC020835BC020835BC020835BC020854
:1000C00002B4714649084900095649008E4402BCF1
:1000D0007047C04602B4714649084900095C4900AE
:1000E0008E4402BC7047C04603B4714649084000C4
:1000F0004900095E49008E4403BC704703B4714651
:10010000490840004900095A49008E4403BC704721
:10011000002243088B4274D303098B425FD3030A46
:100120008B4244D3030B8B4228D3030C8B420DD359
:10013000FF22090212BA030C8B4202D312120902E7
:1001400065D0030B8B4219D300E0090AC30B8B4225
:1001500001D3CB03C01A5241830B8B4201D38B03D3
:10016000C01A5241430B8B4201D34B03C01A524178
:10017000030B8B4201D30B03C01A5241C30A8B42BB
:1001800001D3CB02C01A5241830A8B4201D38B02A6
:10019000C01A5241430A8B4201D34B02C01A52414A
:1001A000030A8B4201D30B02C01A5241CDD2C309BC
:1001B0008B4201D3CB01C01A524183098B4201D338
:1001C0008B01C01A524143098B4201D34B01C01A23
:1001D000524103098B4201D30B01C01A5241C3089B
:1001E0008B4201D3CB00C01A524183088B4201D30A
:1001F0008B00C01A524143088B4201D34B00C01AF6
:100200005241411A00D20146524110467047FFE761
:1002100001B5002000F0F0F802BDC0460029F7D07B
:1002200076E7704703460B437FD4002243088B4296
:1002300074D303098B425FD3030A8B4244D3030B6D
:100240008B4228D3030C8B420DD3FF22090212BA32
:10025000030C8B4202D31212090265D0030B8B42AE
:1002600019D300E0090AC30B8B4201D3CB03C01A98
:100270005241830B8B4201D38B03C01A5241430B73
:100280008B4201D34B03C01A5241030B8B4201D363
:100290000B03C01A5241C30A8B4201D3CB02C01ACE
:1002A0005241830A8B4201D38B02C01A5241430A46
:1002B0008B4201D34B02C01A5241030A8B4201D335
:1002C0000B02C01A5241CDD2C3098B4201D3CB01DC
:1002D000C01A524183098B4201D38B01C01A52418B
:1002E00043098B4201D34B01C01A524103098B428F
:1002F00001D30B01C01A5241C3088B4201D3CB007A
:10030000C01A524183088B4201D38B00C01A52415C
:1003100043088B4201D34B00C01A5241411A00D20C
:1003200001465241104670475DE0CA0F00D0494275
:10033000031000D34042534000229C4603098B42E5
:100340002DD3030A8B4212D3FC22890112BA030A6D
:100350008B420CD3890192118B4208D389019211EF
:100360008B4204D389013AD0921100E08909C30974
:100370008B4201D3CB01C01A524183098B4201D376
:100380008B01C01A524143098B4201D34B01C01A61
:10039000524103098B4201D30B01C01A5241C308D9
:1003A0008B4201D3CB00C01A524183088B4201D348
:1003B0008B00C01A5241D9D243088B4201D34B0063
:1003C000C01A5241411A00D20146634652415B10A5
:1003D000104601D34042002B00D549427047634686
:1003E0005B1000D3404201B5002000F005F802BDCB
:1003F0000029F8D016E770477047C04684460800C9
:100400006146FFE71FB500F0A5FC002801D40021DC
:10041000C8421FBD10B500F031FC4042013010BD94
:1004200010B500F097FC002801DB002010BD012072
:1004300010BDC04610B500F08DFC002801DD002085
:1004400010BD012010BDC04610B500F03DFC0028D5
:1004500001DC002010BD012010BDC04610B500F029
:1004600033FC002801DA002010BD012010BDC04679
:100470001C2101231B04984201D3000C10391B0AD4
:10048000984201D3000A08391B09984201D3000998
:10049000043902A2105C40187047C04604030202EF
:1004A000010101010000000000000000002B11D13B
:1004B000002A0FD1002900D1002802D00021C94311
:1004C000080007B4024802A14018029003BDC046CC
:1004D00029FFFFFF03B4684601B5029800F04CF80D
:1004E000019B9E4602B00CBC7047C046F0B5CE469C
:1004F000474680B5070099463B0C9C4613041B0CED
:100500001D000E0061460004140C000C45434B43D3
:1005100060436143C0182C0C20188C46834203D9D9
:1005200080235B029846C444494679437243030CD6
:1005300063442D042D0CC918000440198918C0BC4F
:10054000B946B046F0BDC0469E2110B5C905041C91
:10055000FFF784FF002803D1201C00F013FF10BD1B
:100560009E21201CC90500F05FFD00F00BFF8023D9
:100570001B069C466044F2E7F0B557464E4645469A
:10058000DE46E0B504000D009246994683B08B42EA
:1005900030D82DD04946504601F0D6FB2900060040
:1005A000200001F0D1FB331A9846203B9B4633D400
:1005B0005A465346934042461F00534693401E00FE
:1005C000AF423AD8AF4200D178E05B46A41BBD41B0
:1005D000002B00DA75E00022002300920193012332
:1005E0005A4693400193012342469340009328E0EA
:1005F0008242CFD900220023009201930C9B002B52
:1006000001D01C605D600098019903B0F0BCBB464E
:10061000B246A946A046F0BD424620239B1A524648
:10062000DA40414613004A468A40170042461F43BB
:10063000534693401E00AF42C4D9002200230092CB
:1006400001934346002BD9D0FB0772081A43464654
:100650007B080EE0AB4201D1A2420CD8A41A9D4106
:10066000012024196D410021013E24184D41002E26
:1006700006D0AB42EED9013E24196D41002EF8D1CF
:10068000009801995B4600196941002B24DB2B007F
:100690005A464446D3402A00E2401C005B461500FF
:1006A000002B2ADB26009E40330026004746BE4032
:1006B0003200801A9941009001919FE7A342BCD873
:1006C00083E74246202300219B1A002200910192D9
:1006D0000122DA40019286E7424620239B1A2A0033
:1006E00046469A402300F340444613432A00E24022
:1006F0001C005B461500002BD4DA42462F00202355
:10070000260097409B1ADE403B003343CDE7C046AE
:10071000F0B5C64643025B0A4E0245004F00DA00C0
:10072000C40F9C46700A904600B52D0E3F0EC90FAF
:10073000B6098C424BD0EA1B002A36DD002F61D06F
:10074000FF2D00D1ADE08023DB041E431B2A00DC1B
:10075000D3E001204346181A430100D48CE0800105
:1007600087093800FFF784FE05388740854200DCA2
:10077000B6E02D1AB3483840430704D00F23034096
:10078000042B00D00430430100D478E06A1CFE2D15
:1007900065D08001430A9C46D2B26346D005184317
:1007A000E407204380BCB846F0BD002A35D07A1B50
:1007B000002D00D0AFE04346002B00D1A7E0531E30
:1007C000012A00D12FE1FF2A69D01A00AAE0E91B13
:1007D000002970DD002F37D0FF2D62D08023DB048D
:1007E0001E431B2900DCB0E001204044430143D5F7
:1007F0000135FF2D33D00123934A034040081040B8
:100800001843B9E7002E00D183E0511E012A00D120
:10081000D8E0FF2A45D00A0098E7FE276A1C174255
:1008200000D086E0002D00D0B7E04346002B00D179
:10083000F3E00022002EB0D0981B430100D4FAE070
:1008400043460C00F01A97E7002E00D1C8E04A1E7C
:10085000012900D1AEE0FF2923D01100C1E7002318
:10086000FF229C4699E7FE216A1C114277D0FF2A9D
:10087000F5D0150046447008430700D07EE7C30852
:10088000FF2D0ED05B025B0A9C46EAB285E7002E84
:1008900007D08022D203134203D0104201D10C00B2
:1008A0000300002BDBD08020C00318434002430A22
:1008B0009C46FF2271E70029D5D07A1B002D60D11C
:1008C0004346002B24D0531E012A73D0FF2AE7D0C1
:1008D0001A001B2A00DC85E001203D00801985E715
:1008E00020233A00451B38000135EA405D1BA84033
:1008F000431E9841002510433EE7202330009B1AF9
:1009000031009840D140431E9841084322E70C0033
:1009100003001500B4E7FF2FC1D080234046DB045D
:10092000184380461B2A51DD01200C003D00301A7F
:1009300012E743469F1B7B012BD4002F00D010E70A
:100940000023002400229C4627E7202332003000A9
:10095000CA40591A8840431E9841104345E7002D6C
:100960004AD14346002B63D00022002E00D114E769
:1009700030004044430100D47EE7324B013518403B
:100980007AE7FF2F8CD080234146DB041943884649
:100990009FE743460C00F71AE3E64246002A00D0E0
:1009A00075E7002E00D07AE78023DB0300249C4605
:1009B000FF22F2E6300040440125430100D45BE70A
:1009C000022518E743460125981BC5E62023444627
:1009D0004046D4409A1A9040431E98412043A4E7D1
:1009E0000D004DE7202341464046D1409A1A9040E1
:1009F000431E9841084370E74246002A00D14FE762
:100A0000002E00D14DE78022D203134200D148E7E7
:100A1000104200D045E7030043E7002E90D00C00C1
:100A200084460022B9E643460C00F01A013593E6ED
:100A300084460022B1E6002800D01DE700230024F0
:100A40009C46AAE6FFFFFFFBFFFFFF7DF0B54F4688
:100A50004646D6464502C0B547000C1C6D0A3F0EFF
:100A6000C60F002F00D170E0FF2F00D175E0EB0022
:100A70008025ED041D43002399469A467F3F60027E
:100A8000430A984663001B0EE40F002B4ED0FF2B49
:100A900046D04246D0008022D20402439046002233
:100AA0007F3B3100FF1A4B466140C9B213430F2B05
:100AB00000D9B5E06E489B00C3589F460023984676
:100AC0002600454692465346022B00D189E0032B6F
:100AD00000D19EE0012B18D03B007F33002B69DD55
:100AE0006A0704D00F222A40042A00D004352A01C4
:100AF00003D5604B1D403B008033FE2B00DD70E0D2
:100B0000AD016D0AD8B202E00E0000200025C0053C
:100B10002843F6073043E0BCBA46B146A846F0BDCC
:100B20004346002B3FD10222FF3F03E04346002B08
:100B30002DD1012231004B466140C9B213430F2B26
:100B400034D84D489B00C3589F46002D13D1042331
:100B50009946033B00279A4691E7002D05D10823CB
:100B60009946063BFF279A4689E70C239946093B9D
:100B7000FF279A4683E72800FFF77AFC7627431F72
:100B80009D4000237F4299469A463F1A77E74046A8
:100B9000FFF76EFC4246431F9A4076235B42904625
:100BA0001B1A00227DE7FF2303227AE70E00FF20B5
:100BB0000025ACE70120C01A1B28A6DC9E372A00BE
:100BC000BD40C2406B1E9D4115436B0704D00F23EF
:100BD0002B40042B00D004356B0144D501200025A7
:100BE00095E7FF20002592E780250026FF20ED03F2
:100BF0008DE7002398468020C003054209D0434674
:100C0000034206D1454605436D022600FF206D0ACA
:100C10007DE78020C00305436D02FF206D0A76E763
:100C200042466B015001834219D21B220025013F2D
:100C300001261C006D005B00002C01DB984201D8EE
:100C40001B1A3543013A002AF3D15A1E93411D4322
:100C50003B007F330E00002B00DD41E7AAE71A229C
:100C600001251B1AE4E7AD0100206D0A4FE7C046DD
:100C700014120308FFFFFFF75412030870B5420077
:100C800045024E024C00C30F6D0A0120120E760A77
:100C9000240EC90FFF2A06D0FF2C03D0A24201D197
:100CA000B54206D070BD002DFCD1FF2CFAD1002E2C
:100CB000F8D18B4206D00120002AF3D12800431E30
:100CC0009841EFE70020EDE770B5420045024E0283
:100CD0004C00C30F6D0A120E760A240EC80FFF2AAD
:100CE0001BD0FF2C0ED0002A1BD1002C01D1002ECE
:100CF0001CD0002D0CD083421CD00221581E08406D
:100D0000013870BD002E22D1002AF4D1002DF2D17D
:100D10000028F6D101204042F3E7002D17D1FF2C27
:100D2000F0D0002CE7D1002EE5D1E6E70020002D21
:100D3000E7D0E2E7A24205DCEADBB54202D8E7D31E
:100D40000020DEE74342584140000138D9E7022045
:100D50004042D6E770B5420045024E024C00C30F38
:100D60006D0A120E760A240EC80FFF2A0BD0FF2C34
:100D70000DD0002A1FD1002C16D1002E14D1002036
:100D8000002D10D009E0002D0CD1FF2C13D1002E26
:100D900008D1002A08D0834212D00221581E0840F0
:100DA000013800E0022070BD002DF4D10028FAD1F6
:100DB00001204042F7E7002CEDD1002EEBD1ECE70B
:100DC000A24205DCF2DBB54202D8EFD30020EAE70D
:100DD0004342584140000138E5E7C046F0B54F4670
:100DE0004646D64644024500C0B5640A0F1C2D0E87
:100DF000C60F002D00D18DE0FF2D00D192E0002321
:100E0000802099469A46E400C00404437F3D78025E
:100E1000430A98467B001B0EFF0F002B00D170E0A9
:100E2000FF2B00D186E04246D00080227F3BED18A8
:100E30000023D204024390469C4631004B46794041
:100E4000681C0F2B1CD8764A9B00D3589F4639004C
:100E50004446E2465346022B0FD0032B00D1D7E085
:100E6000012B37D100200024C0052043C9070843C7
:100E7000E0BCBA46B146A846F0BDFF200024F3E727
:100E8000260C2404220C44462404240C4346270048
:100E90001B0C574374435A435E4312193B0C9B1877
:100EA0009C4203D980225202944666443F041A04AD
:100EB0003F0CD2199401671EBC411B0C920E9B196A
:100EC00014439B011C431B0100D49BE001236208D7
:100ED0001C40144302007F32002A64DD630704D003
:100EE0000F232340042B00D00434230103D5020038
:100EF0004C4B80321C40FE2ABFDCA401640AD0B2F5
:100F0000B2E74346002B3DD14A4601331A4391468E
:100F10009C4692E7002C29D104239946033B0025E7
:100F20009A4674E7002C1BD108239946063BFF25FF
:100F30009A466CE74346FF35002B0BD102234A4605
:100F40001A4391469C4678E753463100022B00D065
:100F500083E792E703234A461A4391469C466CE78F
:100F60000C239946093BFF259A4650E72000FFF7DE
:100F70007FFA7625431F9C4000236D4299469A468E
:100F80002D1A44E74046FFF773FA4246431F9A4042
:100F900000232D1A90469C46763D4EE78024002182
:100FA000FF20E40360E701239B1A1B2B00DD59E7B8
:100FB00022009E30DA4084401300621E94411C439C
:100FC000630704D00F232340042B00D004346301B3
:100FD0001AD50120002447E78020C003044209D02D
:100FE0004346034206D14446044364023900FF20CD
:100FF000640A39E78020C003044364023100FF2003
:10100000640A31E7280065E7A4010020640A2BE7A1
:101010008020C00304436402FF20640A24E7C04622
:1010200094120308FFFFFFF7F8B5CE464746430288
:101030005B0A4E02DA009446720A914645004A0065
:1010400080B52D0E1F00C40F120EC90FB609FF2A5E
:101050005BD0012041408C4239D0A81A00285ADDCB
:10106000002A6AD0FF2D00D1D9E08022D204164395
:101070001B2800DCE9E001206346181A430100D474
:10108000B4E0800187093800FFF7F2F9053887409E
:10109000854200DCCCE02D1AB5483840430704D027
:1010A0000F230340042B00D00430430100D4A0E000
:1010B0006A1CFE2D00D18DE08001470AD2B2D00516
:1010C0003843E4072043C0BCB946B046F8BDA81A6F
:1010D0008046002845DD002A70D0FF2D00D19EE01B
:1010E0008023DB041E4343461B2B00DCD2E001209F
:1010F000604443017AD50135FF2D6BD001239D4A11
:101100000340400810401843C8E7002E20D08C420E
:1011100023D02800FF38002839D0571B002D00D0DD
:101120009DE06346002B00D1DBE07B1E012F00D148
:101130000DE1FF2F71D01F0098E0002E00D1A7E035
:10114000421E012800D1E6E0FF2868D010008FE79A
:1011500001204140A14200D07FE7FF20404280466D
:10116000A8444046002838D0511B002D00D1AEE0E5
:10117000FF2A00D1DFE080236046DB041843844669
:101180001B2900DCD9E0012015008019B1E7FE2001
:101190006A1C104271D1002D00D0A6E06346002BDE
:1011A00000D1D9E00022002E00D188E7981B43012E
:1011B00000D4E1E063460C00F01A6FE7002E00D186
:1011C000B7E00200013A012800D19CE0FF2826D0B8
:1011D000904688E7FF22002771E7FE206A1C104234
:1011E00064D0FF2AF6D0150066447008430700D08B
:1011F00056E7C308FF2D12D05B025F0AEAB25EE732
:101200006246002A00D196E0002E08D08022D20348
:10121000134204D04846104201D10C004B46002B2B
:10122000D8D08027FF031F437F02FF227F0A46E7B3
:1012300020233A00451B38000135EA405D1BA840D9
:10124000431E98410025104328E720231B1A320033
:101250009E40C2403000431E984110430CE7FF2AD5
:10126000DBD080236046DB04184384461B2F56DD09
:1012700001200C001500301A00E763469F1B7B011C
:101280003DD4002F00D0FEE600240022002716E700
:101290000500AFE7320043464146DA4020235B1A9F
:1012A0009E403000431E9841104321E7002DA7D1F6
:1012B0006346002B59D00022002E00D1FFE63000FB
:1012C0006044430192D52A4B013518408EE76346AE
:1012D000002B47D04B1E012915D0FF292BD0190018
:1012E0004EE70C004B463D0084E76246002A8BD156
:1012F000002E92D180270024FF22FF03DFE6634601
:101300000C00F71ABFE6300060440125430100D409
:101310006CE70225F2E663460125981BAEE6202322
:1013200064466046FC40DF1BB840431E98412043A2
:101330009FE705005EE74B4671E720236546604660
:10134000CD40591A8840431E984128431CE7634604
:101350000C000125F01A91E6002E95D00C004F46A6
:101360000022ACE64B460D0044E74F460022A6E6BD
:10137000FFFFFFFBFFFFFF7D002800D036E70024C2
:1013800000279CE641024200C30F490A0020120ECA
:101390007E2A03DD9D2A02DD094A981870478020C5
:1013A00000040143952A07DC9620821AD140484266
:1013B000002BF3D10800F1E7963A9140F7E7C046D9
:1013C000FFFFFF7F70B5051E0ED0FFF751F89E237B
:1013D00004001B1A962B0CDC082801DD083CA540F4
:1013E0006D026D0AD8B201E000200025C005284337
:1013F00070BD992B09DD020029001B3291404A1E65
:1014000091410522121AD5400D43052C12DC29000A
:101410000C4E31406A0709D00F202840042805D01F
:1014200004314A0102D59F2331401B1B89014D0A1B
:10143000D8B2DBE7621F95402900024E31406A07AF
:10144000F4D0E9E7FFFFFFFBF0B54F464646D6462E
:101450000D000400C0B51F0011002803620F400AF0
:1014600010437A00520DE3003C039146640AFA0FE0
:101470004F0F6E0027439246B846760DED0FC90018
:10148000954200D199E04C46341BA446002C00DC68
:101490007CE04A46002A00D1B8E0C54A964200D115
:1014A0001CE180223C0012041443A0466246382A04
:1014B00000DD61E11F2A00DDCCE164462022121B21
:1014C000444694400F00A14664469140E7404C4694
:1014D0004A1E91413C43424621436446E240801A01
:1014E0005C1AA3429B415F42C71B3B0200D4D0E081
:1014F0007F027F0A002F00D1FFE03800FEF7B8FF1F
:1015000001000839202322005B1A8F40DA408C400A
:101510001743B14200DAFFE0891B4B1C1F2B00DD93
:10152000A8E020223900D21A200094409140D840EF
:10153000621E9441DF40002601430C43630709D03B
:101540000F232340042B05D0231DA342A441644252
:101550003F191C003B0200D49EE0954B01369E4291
:1015600000D1B7E0934AE40817407B0771057F027A
:1015700023433F0B4A0D12053A43ED072A43180057
:101580001100E0BCBA46B146A846F0BD002C4BD0D5
:101590004C46A41BA446002E00D023E104001C43AB
:1015A00000D1AFE16246541E012A00D115E2804D00
:1015B000AC4500D1C8E1A4461BE14A46B21A9446A4
:1015C000002A00DCACE04A46002A43D0784A964222
:1015D00000D1AFE180223C0012041443A0466246D1
:1015E000382A67DC1F2A00DC5FE14746203AD740F3
:1015F0006246202A05D064464022121B444694408D
:1016000021434A1E91410C003C4357E03A000A43F3
:1016100000D105E12200013A012C00D182E1644CA5
:10162000A4455BD0944641E7634C771C274200D029
:10163000C4E004001C43002E00D069E1002C00D15E
:10164000BFE144460C4300D0D0E14207DB0813431E
:10165000C00829E03A000A4300D170E162466446BE
:10166000013A012C00D1E0E0514CA44500D161E1E8
:101670009446B4E73A001F39CA401100202B03D02A
:101680004022D31A9F403C43631E9C410027002602
:101690000C43630700D053E7B446E4087B072343B9
:1016A000F808434A94451DD06246070352053F0B94
:1016B000520D60E744460C43621E9441E4189C427C
:1016C0009B415F423F183B02E3D5394B01369E42B6
:1016D00000D0B5E03200002700234CE74207DB08CA
:1016E0001343C0081A00024300D1E1E180273F0301
:1016F00007433F032E4A3F0B3DE72000FEF7B8FEAD
:10170000010018311F2900DCFCE60838844027005E
:101710000024B14200DBFFE6264A761A17400DE7A7
:10172000002A2FD04A46921B9446002E00D1ADE0ED
:101730001F4A914500D10FE18022120410436246F6
:10174000382A00DD0FE11F2A00DD80E164462022F7
:101750001E00121B6746040093409440FE405A1E30
:101760009341F84034431C43804464188C42BF4189
:101770007F424E464744A6E742460A4311004A1EAE
:101780009141ADE60C4C721C224200D0A1E0020057
:101790001A43002E00D0FAE0002A00D145E13A00B9
:1017A0000A4300D046E14207DB081343C0087BE749
:1017B000FF070000FFFF7FFFFE07000047465C1A9F
:1017C000C21BA342BF417F42B94617004A46BF1A17
:1017D0003A0200D58DE023003B4300D08AE600208A
:1017E000002561E7B44CA14500D1ADE0802424047C
:1017F00020436446382C3DDC62461F2C00DDB7E0F8
:1018000020251E002D1B0400AB40AC40D640D0402C
:1018100042465D1EAB413443121A904623432CE0EE
:101820004207DB081343C0083BE75C189C429B411E
:1018300040445B42C71801263B0200D429E7022638
:101840009E4A63081740012214401C43FB071C43B7
:101850007F0873E64446203AD4406246202A05D0E9
:1018600067464022D21B4746974039434A1E914162
:10187000214335E60343581E8341CC1AA142BF41A0
:1018800043467F4255464E46DF1B2EE602001A4372
:1018900000D1BDE062466446013A012C00D1E5E08A
:1018A000854CA44558D0944649E764462022121B33
:1018B000444694400F00A14664469140E7404C46A0
:1018C0004A1E91413C4342460C436146CA4080183F
:1018D000F4E6794CA24200D1FDE6591899429B41A9
:1018E00040445F42C719FC07490816000C437F08B3
:1018F000CFE6CC1AA142BF4143467F42181A554653
:10190000C71BF7E5C9087B0755460B43F808C8E62F
:10191000002C00D081E043460B4315D180200025E8
:101920000003E3E65C1AA3429B41C71B5B4201260E
:10193000FF1ADAE54207DB081343C008D2E6420784
:10194000DB081343C008ACE643464246C9085B07C0
:1019500055460B43D008C5E6434642465B07C908D7
:101960000B43D008BEE603431C00631E9C41FCE60B
:101970000200203CE24014006246202A03D04025A9
:10198000AD1AA8400343581E8341234375E7002A3C
:10199000E2D03A000A43CDD04207DB08134380224D
:1019A000C0081203104206D0FC08144203D12000E4
:1019B000CB087A0713435A0FDB005207DB081343A7
:1019C00090E643460B4300D109E743464246C90827
:1019D0005B0755460B43D00866E6CC1AA142894105
:1019E0003F1A4942554601267F1A7EE542465C1A57
:1019F000871AA34292415242BF1A3A023DD5CC1AED
:101A0000A1428941434649421F1A55467F1A95E52E
:101A10007B07C9080B43F80843E64446DB080C4340
:101A200030D142071343C0085CE67B07C9080B436B
:101A3000F80839E65C189C429B4140445B42C71859
:101A40003B0200D425E61D4B01261F4021E6040081
:101A5000203AD4406246202A04D040226646921B97
:101A6000904003435A1E93411C437EE65C188C420F
:101A70008941404449424718DDE623003B4300D1F9
:101A8000ADE606E6440723438024C0082403204231
:101A900008D04246D608264204D155463000CB082D
:101AA00051070B435A0FDB00DB085207134319E6BB
:101AB0000023014A1F005EE5FF070000FFFF7FFFD4
:101AC0000A0030B5134C530009030500090B002030
:101AD0005B0DD20FA34204DD0F48834202DD0F4BA2
:101AE000D01830BD8020400301430D48C01A1F2884
:101AF00008DD0C48C31AD9400B005842002AF0D127
:101B00001800EEE7084CC540A446634499400B001A
:101B10002B43F2E7FE0300001D040000FFFFFF7FE0
:101B20003304000013040000EDFBFFFF70B5430019
:101B30004602C40FFE201B0E591C750A08420CD029
:101B4000E022920094466D07360B63441B05334335
:101B5000E40723432800190070BD002B14D1002D89
:101B60001BD02800FEF784FC0A281CDC0B232E0067
:101B70001B1ADE40030015339D400E4A3603121A2D
:101B80005205360B530DE1E7002D09D08022360BAC
:101B90001203094B6D071643D8E700230026D5E74B
:101BA0000026054BD2E703000B3B9D402E0000258D
:101BB000E3E7C04689030000FF07000002004B0076
:101BC000F0B55B0D0C033D4E640A400F5F1CC90F5E
:101BD0000443D50037420AD039481E18FE2E16DDC0
:101BE000FF200024C0052043C9070843F0BD002B97
:101BF00006D12C4326D005229201540AD8B2F1E72F
:101C00002543EDD08020C0030443FF20EAE7002EE7
:101C10001BDD9201531E9A41E4006D0F22432A43BB
:101C2000530748D00F231340042B00D004328023E5
:101C3000DB0413403FD0701CFE2ED1D09201540A19
:101C4000C0B2CFE700200024CCE73200173222DBFD
:101C50008020000420431E24A41B1F2C1DDD022213
:101C60005242961B0200F2401600202C04D0154A66
:101C700094466344984005432A00531E9A413243D8
:101C800000265307CED180241300E4040120234012
:101C90002242D3D1B0E70023ADE70B4A94462A0095
:101CA000E24014002A0063449A409840551EAA411D
:101CB00002432243E4E733009EE7C046FE070000EC
:101CC00080FCFFFFA2FCFFFF82FCFFFF84461000A8
:101CD00062468C461900634600E0C0461FB500F01E
:101CE000E7F8002801D40021C8421FBD10B500F05C
:101CF00037F84042013010BD10B500F0D9F8002887
:101D000001DB002010BD012010BDC04610B500F061
:101D1000CFF8002801DD002010BD012010BDC04615
:101D200010B500F05FF8002801DC002010BD012094
:101D300010BDC04610B500F055F8002801DA0020AB
:101D400010BD012010BDC04610B5002903D1FEF71B
:101D50008FFB203002E00800FEF78AFB10BDC04672
:101D6000F0B54E464546DE4657469046E0B517006C
:101D70001A03120B0500844619480E034C009146C5
:101D80005A00DB0F9B46360B640DC90F520D84427F
:101D900019D0824210D0012094420ED14E450CD170
:101DA0000120C44509D1594517D0002C05D1300078
:101DB0002843431E984100E00120F0BCBB46B246D8
:101DC000A946A046F0BD330001202B43F5D1A24225
:101DD000F3D14B463B43F0D1E2E70020EDE7C046AC
:101DE000FF070000F0B54746CE4604001800160075
:101DF0001B031B0B2D4D4A00994680B543000F0372
:101E0000A446B0463F0B520DC90F5B0DC00FAA424E
:101E100021D0AB4213D0002A22D13C43002B02D167
:101E20004D462E4322D0002C10D0814222D00220D9
:101E3000013908400138C0BCB946B046F0BD4D4636
:101E40002E4329D1002AF0D13C43EED10028F2D113
:101E500001204042EFE73D0025431DD19342EED0E3
:101E6000002BE2D14C462643DFD1E0E70020002CD6
:101E7000E1D0DCE79A420ADCE8DB4F45D7D80ED048
:101E800000204F45D7D20029E2D00800D3E74342D3
:101E9000584140000138CEE702204042CBE7C4451C
:101EA000C5D80020C445C6D2EDE7C046FF070000F4
:101EB000F0B54746CE460400180016001B031B0B66
:101EC0002C4D4A00994680B543000F03A446B04606
:101ED0003F0B520DC90F5B0DC00FAA420DD0AB4294
:101EE00010D0002A27D13C43002B11D14D462E4360
:101EF0000ED10020002C15D00EE03D00254310D15E
:101F0000934218D14D462E430BD1002A02D13C43B7
:101F1000002C0BD0814214D0022001390840013836
:101F200000E00220C0BCB946B046F0BD0028F9D19F
:101F300001204042F6E7002BECD14C462643E9D184
:101F4000EAE79A4204DD4342584140000138E9E79C
:101F50009A42EBDB4F45DFD806D000204F45E1D257
:101F60000029E5D00800DDE7C445D5D80020C445E8
:101F7000D8D2F5E7FF07000002780B78002A03D0DB
:101F8000013001319A42F7D0D01A70470023C25C69
:101F90000133002AFBD1581E70470000064B074A48
:101FA00010B5D21A0323D208920141781A4304488B
:101FB0000CF0FBFB10BDC046641103087C11030844
:101FC000D2160308064B074A10B5D21A0323D208CB
:101FD00092011A43044B195C04480CF0E6FB10BD57
:101FE000641103087C1103081B170308F716030884
:101FF0007FB50D4A0D4B9B1A0322DB089B0113434F
:1020000042780B4801924A78029202228A56039241
:1020100003228A56049204228A5601A905920522B7
:102020000CF008FC07B000BD641103087C11030824
:102030001F1703087FB50D4A0D4B01A99B1A0322F8
:10204000DB089B011343427B0192427802920422F7
:1020500082560392142282560492427D05480592CC
:1020600005220CF0E7FB07B000BDC0466411030871
:102070007C1103087217030807B50C4B0C4A0121A9
:102080009B1A0322DB089B01134300224156825610
:1020900008480CF09EFB002201216B46684619801F
:1020A0001300019209F068F907BDC0467C110308CE
:1020B00064110308C617030810B502480AF0FEFEB3
:1020C00010BDC04638850020F0B585B02F4D0122E7
:1020D000002128000EF0FAFC02F076F82C4809F0F6
:1020E000F7F900280FD02B4B2B492C48C91A012394
:1020F000C908890119430CF04CFB6721284B294A78
:1021000029480BF0CBFB294808F0F8FF00280DD038
:10211000204B21492148C91A0123C90889011943C3
:102120000CF037FB6C211E4B1E4AE9E7204909F0F1
:10213000A9F9F026022009F0B9F80027B60209F043
:1021400051F832003B0028000AF0D4FE0B30F6D1E3
:1021500009F0FAF8041EF2D101A9052005F0B8FE35
:10216000011E0AD16A46134B0393134B13810300DC
:10217000020002A809F000F9E1E76B460122210004
:102180001A81039423002200F3E7C046388500201B
:1021900000800020641103087C110308F71703086E
:1021A0007B1903083A1803081B1803083481002020
:1021B000208000202D180308010500000B6810B5D1
:1021C00001330B60014B1B68984710BD2C80002029
:1021D000014B18607047C0462C80002007B50B00EB
:1021E000002102000191024801A900F07BF807BD1F
:1021F000BD21020830B5002585B001900291040090
:1022000001A90548039500F06DF80398029B9842D8
:1022100000DA255405B030BD79E60208F0B50300B8
:102220000268042400200A26054D11786F5C2742BD
:1022300001D11A60F0BD7043303801324018F4E724
:1022400092210308F0B585B001900393D37815006F
:10225000234A0F00D15C03221140082402916F2B06
:102260000AD004D80234582B06D1063404E00822E0
:102270000A249343702BF8D00A9E220000233900D1
:102280000198FEF713F913008C46D2B2092B19D826
:1022900013003033DBB2013E33700023BB4202D166
:1022A000019B9C4202D8039B9E4208D82B789B0638
:1022B00013D5082C0FD1AB781C43AC700DE06746EA
:1022C0000190DAE7130002995733DBB20129E2D11A
:1022D0003732D3B2DFE7102CEDD0300005B0F0BDBF
:1022E00092210308F0B516001F00002599B0069052
:1022F00007913078002801D12800EBE2731C059388
:10230000252807D00799069B9847002800DAE1E2C4
:102310000135ADE112AC1822002120000EF029FD9C
:102320007378252B55D040211020059B1A7812ABCD
:102330002B2A6DD061D8202A6DD0232A72D0442157
:102340001A7A1140442902D140218A431A7280220C
:10235000059B12AC0B93237A524213432372059BC5
:102360001B782A2B61D1627A293B13436372059A49
:1023700001320B92117812AC0B002E3B58424341B4
:102380005B009C460220637A83436046034363728A
:102390002E2909D1531C0B9353782A2B5AD1637AD7
:1023A0002A390B43637202321178501C12AB6C292C
:1023B00000D19BE05DD8682964D06A2900D1A1E0F2
:1023C0004C2900D1A8E07820597A81435972100035
:1023D00062E0B21C0592E37212AA517ACB0700D4D4
:1023E000F4E008CF0393002B00DBF4E00423107A21
:1023F0001843039B10725B42ECE02D2A04D0302A74
:102400009DD11A7A0A4308E004241A7A224304E090
:1024100008241A7AFAE71A7A02431A72059B0133E2
:10242000059382E720221C7AF0E70BA8FFF7F6FE5F
:102430000B9A059B9A429CD0237AE0609907084347
:10244000C00F4100802040420143FD3003400B4358
:1024500023728EE70BA8FFF7E1FE237A20619A072B
:1024600010430222C00F9343400018430B9A20727E
:102470009AE7782474294BD07A29A4D1597A30224A
:10248000A14330E051787824682929D10820597A6D
:10249000A14301435972901C0178431C12AA059371
:1024A000D172537A782900D989E057293BD841293C
:1024B00003D04539022900D981E0072112AA937A75
:1024C0008B4303390B439372012312AA117A8807B5
:1024D000C00F034302205B0081430B4313727BE771
:1024E0001022597AA1430A435A72D5E751787824C9
:1024F0006C2903D1587A4C39A043CAE7597A18227B
:10250000A143F0E778215A7A8A4311002822EAE7AA
:10251000597A3822A143E6E71A899B4911409B4A20
:102520000A431A81B8E708005838202847D8FDF731
:10253000C7FD284646464646464646C4462811C478
:10254000C4C44611464646462E283C46463C4628CC
:10255000464628000724907AA04304000120204327
:10256000907278221A40402A04D1012312A8047ADA
:102570002343037200236329A7D113005A1E9341FA
:1025800011E00724907AA04304000220E7E7072027
:10259000917A81430800032101439172782213400C
:1025A000403B5A425341DBB28FE70720917A814387
:1025B000080003210143917278221340DEE70123D2
:1025C00012AA117A0B43137200237EE7137A7F2B32
:1025D00010D9D3680393042312AA19420CD008CF50
:1025E0000893002B0CDA0221537A8B435372012398
:1025F0005B4204E00123FEE68B07F8D513690893DC
:10260000002412AA937A517A5B0749065B0F090FDF
:10261000D4601461012B34D1C81E04280BD8FDF7F7
:1026200059FD0350500A0A00380008C81360DB1730
:10263000536007000BE001CF12AB1060C017506071
:10264000012917D1129AD2B2129200225A6012AA0C
:10265000137A03201C00044003424FD03200059B34
:10266000079906980CF04EF8002800DA32E12D1890
:10267000059E3EE60229EAD100201A5E1A60D217B2
:10268000E4E7022B29D1C81E042805D81400FDF761
:1026900021FD1318181F1F0001CF11C2129BDBB2BE
:1026A000012905D00229D2D1129B04936B461B8AC3
:1026B000129300231393CAE700233A68381D0CC411
:1026C000B7E70723F81D98430CC812921393B0E79D
:1026D00001CF106000205060E0E7042B09D10720F3
:1026E000FB1D83431F005C681B6808371360546040
:1026F000ADE7032BABD101CF1060A8E7D07A7828E3
:10270000B6D8622824D8252800D1FBE55828AFD1B7
:1027100012981399262308AA9B18009314AA0CABAD
:10272000FFF790FD0490262308AA9B180993089BA5
:10273000002B3ADB4020049A099B9B1A12AA117ABB
:1027400081431172089999422FD9CB1A15932CE025
:10275000633815288CD8FDF7C7FC5F0069008BFF34
:102760008BFF8BFF8BFF69008BFF8BFF8BFF8BFF3A
:1027700097007F0081008BFF8BFF1B008BFF7F008A
:102780008BFF8BFF7F00C046FD87FFFF02400000EC
:10279000129B0493089B002B3ADB190004980EF05F
:1027A0009AFB0024049B1B180993049B002B00D167
:1027B0005EE7099B049A9E1A23005A1E9341F6185D
:1027C00012AB9B7ADA0679D50236159A0892B618BA
:1027D0005B0601D5169BF618039B002B00DC88E0F6
:1027E0009B1B089312AB1B7A5A07D60F002A00DAFC
:1027F000BEE05B0600D46FE0002C07D020000799F4
:10280000069B9847002865DB34000135302664E0DC
:102810000498FFF7BBFBC4E7129A0CAB1A701122A5
:10282000002408A9521809920493C2E708222B2415
:10283000134205D11C0092181440134200D02024EA
:10284000129A139B002B00DB62E700215042994152
:102850002D24129013915BE7002459E7129812AED1
:10286000002826D0262308AA9B18009314AA0CAB94
:102870000021FFF7E7FCEF22738900241A40424B46
:102880000490134373814EE71368072900D9EFE6DC
:102890000800FDF71FFC0C04060C08080C0C1D704A
:1028A000E6E61D80E4E6EA171D605A60E0E61D607A
:1028B000DEE6364B04000993354BB5E708221A4093
:1028C000511E8A41B61880E730000799069B984749
:1028D000002804DA19B0F0BD2026089B0393039A60
:1028E000089B11005B1901399B1A0391002AEBDC4C
:1028F0001D00002C06D020000799069B9847002851
:10290000E8DB013512AB9B7ADA0601D41B0706D54A
:1029100030200799069B98470028DBDB013512AB76
:102920009A7AD20606D5D87A0799069B9847002846
:10293000D0DB01352C00159E73191B1B002B1ADCF4
:10294000099B049A079906980BF0DCFE0028C1DB6E
:1029500005192C00039B1B195B1B002B00DC87E671
:1029600020200799069B98470028B3DB0135F1E743
:10297000089B0393BDE730200799069B98470028E2
:10298000A8DB0134D8E7C0461078000044180308DB
:102990003F180308EFF3108372B6002B02D162B622
:1029A000BFF36F8F024B034A00201A607047C04686
:1029B000C480002000093D0013B50190019BDA435B
:1029C000D2171340DC171A0D1803002321031143FB
:1029D000054A80185941FA2200239200FDF766FD4E
:1029E0000AF052FC13BDC046E703000030B50022D8
:1029F00089B00F490F480EF067F90024002000212C
:102A00000E23C0220C4D06900791039328000B4B18
:102A10000B49049402940194009492000AF0BAF9CC
:102A2000084928000EF047F8200009B030BDC04624
:102A3000492A020878830020B0830020BD2D0208B7
:102A4000289B00204518030810B502480AF036FA02
:102A500010BDC04668830020F7B503000020019137
:102A60000200010001251C78002C02D0019FBA420F
:102A700000D3FEBD252C02D169400133F3E70029C4
:102A8000FBD0064E375D03263742F6D0732C02D1B9
:102A900029009140084300210132EEE7922103080A
:102AA000FA2010B5084B094A80001A6000F08AFC31
:102AB00000F030FA06480BF03CFE042328220549BA
:102AC00005480DF0B5FF10BD3080002077E7020803
:102AD0005485002028B700205C85002010B5EFF356
:102AE000108472B604480BF035FE002C02D162B699
:102AF000BFF36F8F10BDC0465485002010B5012173
:102B000001480EF006F910BD4C85002010B50021DB
:102B100001480EF018F910BD4C850020F8B5FFF7FC
:102B2000F5FF002607000A4C0A4D2D1B2D11AE4261
:102B300000DBF8BD63685B79002B06D023681B6956
:102B4000002B02D039002000984701361034EEE700
:102B50009C110308AC110308044A054B00209B1A82
:102B6000DB08994201D2C9008858704764110308F4
:102B70009C110308094A4368801A012210B500110C
:102B8000074C0130187119605A712378002B02D15B
:102B900004480AF093F90123237010BD9C11030827
:102BA0000A9900206883002070B501210E480EF0BC
:102BB000B0F8051E05D10D4C0D4E361B3611B54231
:102BC00000DB70BD237B002B0AD023689B69002BA0
:102BD00001D020009847042200212000FFF7CAFFFF
:102BE00001351034EBE7C046508500209C110308E6
:102BF000AC110308114BF7B50400984202D3104BF7
:102C0000984218D3002200230E4801A90AF068F860
:102C10000D4D071E0ED1019801210EF094F8019E72
:102C20001F22351D210028000EF041F97E230536B4
:102C3000EB77F7772C002000FEBDC046F40F0308A9
:102C4000C82203085C8500204D180308031E07D026
:102C5000044A0023904203D3034B98429B415B42BA
:102C60001800704728B70020C8B70020F0B5454BC2
:102C700087B01B780290002B01D100281DD0FFF7F0
:102C80002DFF041E09D001213F480EF04FF8029B92
:102C9000002B15D020000BF050FE029B002B05D11D
:102CA0003A4B1B68002B01DDFFF738FF38480BF06B
:102CB0004FFD431E9841C3B20293029807B0F0BD86
:102CC000344B1B78002B19D1237ADB0716D4200054
:102CD0000BF040FE039020000BF011FE0100039862
:102CE000FFF7BAFE05002C492C4A521AD308049368
:102CF0002B4B5B1ADB080593002D05D1294D2A4E7D
:102D00000027761B361139E02800FDF7B1FB1F23A1
:102D10001F1A390020000BF0F5FD244B06009842E5
:102D200002D3234B98421AD33000FFF78FFF021EC5
:102D300015D1204B9E4212D0638904999B098B4286
:102D400002D2154ADB009A580121059B1A489B01C3
:102D50000B4369460B80039B39000BF050FD0123A8
:102D6000BB409D43C8E76B685B79002B04D02B68A0
:102D7000210028005B68984701371035B742F2DB25
:102D800088E7C0460A990020488500204C8500202D
:102D9000548500200B990020641103089C1103083E
:102DA0006C1103089C110308AC110308F40F03080D
:102DB000C82203084D1803086718030870B5FFF709
:102DC000F3FE0AF07DFA0C4B1860002806D00B4B7E
:102DD0001B68092B02DD0A480AF070F801246442DE
:102DE000E5170020FFF742FF0028FAD1044822002F
:102DF0002B000AF07FF8F4E7788500204885002052
:102E000068830020214B37B51B6841810400984737
:102E1000E060EFF3108572B61D4821000BF08DFCC9
:102E2000002D02D162B6BFF36F8F1A4C0121200032
:102E30000DF06FFF184B1B78002B0BD0EFF31084B5
:102E400072B60020FFF712FF002C02D162B6BFF36A
:102E50006F8F37BD114A23681268002AF9D0012B01
:102E60000AD10022002300920193802200230C4803
:102E700052010AF013FCECE70A2BEAD108480DF0E6
:102E80002FFF08480AF01AF8E3E7C0463080002018
:102E900054850020488500200B990020788500206B
:102EA0007883002068830020F8B50F4F3D78002D0F
:102EB0000ED1FFF779FE0D4C0D4E361B3611B54283
:102EC00007DB0020FFF7D2FE0028FAD101233B7078
:102ED000F8BD63685B79002B03D0236820005B6931
:102EE000984701351034EAE70B9900209C1103083C
:102EF000AC11030807B50438019001210DF016FF4D
:102F0000012803D1024801A90DF0AFFD07BDC0465D
:102F10005C85002010B540232022024902480DF0B4
:102F200087FD10BDC8B700207C850020002313B5A5
:102F300001930120FFF79AFE0400FFF7DFFD002256
:102F40000023054801A909F0CBFE002801D0002C80
:102F5000EFD1019816BDC0467C850020002307B53F
:102F6000002201930548002301A909F0B9FE0028B9
:102F700002D0FFF7DBFF019001980EBD7C85002099
:102F8000F0B5027A85B00190D20721D4457A2D0997
:102F90001ED000242600310001980BF0B3FC07007E
:102FA000FFF754FE002810D0002C06D1019B290009
:102FB0001869FFF751FD041E0AD023000122F340D7
:102FC000134202D03800FFF795FF0136AE42E2D33C
:102FD000019B0B4C1A7A920704D55B690393039B00
:102FE000002B05D1200001A90DF03FFD05B0F0BD7B
:102FF0001D68200003A90DF038FD0395EFE7C046DA
:103000007C8500200EB403B503AB04CB010004485B
:103010000193FFF767F902B008BC03B01847C04638
:10302000FBEC0208F7B51D00089B04001600019197
:10303000DA0606D426499B0600D426492000FFF76D
:10304000E1FF0027AF4224DB00250727B5422DD240
:10305000019B20005A5D2049FFF7D4FF0135102D58
:103060001DD120001D49FFF7CDFF00252E27AE42C0
:1030700028D96821019B5A5D194B9B5C8B4300D179
:103080003A0020001749FFF7BDFF0135102D12D17E
:10309000F7BD20001449FFF7B5FF0137D2E73D42E5
:1030A000D4D120001049FFF7ADFFCFE720000F4932
:1030B000FFF7A8FFD2E76B07D9D120000A49FFF735
:1030C000A1FFD4E720000849FFF79CFFDDE7C046D9
:1030D000E8190308E7190308AA180308B418030835
:1030E00092210308B6180308B2180308B0180308A1
:1030F000F0B58FB00B921A0014AB1B780400049348
:1031000015AB1B780D000C9316AB00201B5E012045
:103110000840089008200593022308401D400790AE
:10312000194207D04233194239D120003B49FFF7F9
:1031300069FF0500089B002B0AD0049B9A00384BBE
:10314000D258002A00D1374A20003749FFF75AFFEA
:103150000026079BB34208D0049B20009A00334B03
:103160003349D258FFF74EFF0600059B002B13DBB7
:103170000B9B304F002B05D00123049A9340DB06B4
:1031800000D52D4F05990C98FFF7E6FC3900020099
:103190002000FFF737FF361870190FB0F0BD002080
:1031A000264B1E688642C4D0254B10001968FCF7D8
:1031B000AFFF3100FDF732F807000D00E1213800C4
:1031C0000901FDF72BF8FA208000069168433100D1
:1031D000FDF724F809900A9106983C21FCF798FF26
:1031E000E1210D9009013800FCF792FFFA23050058
:1031F0000A989B0031005843FCF78AFF099B029014
:103200003C2106980193FDF709F82A00009120005F
:103210000D9B0C49FFF7F6FE8BE7C046C718030865
:10322000F8120308B9180308EC1803080C13030874
:10323000EF180308BE180308C31803089885002078
:103240009C850020D018030870B504000D00CB0742
:1032500003D5074A0749FFF7D5FEEB0606D4064912
:10326000AB0600D405492000FFF7CCFE70BDC04678
:10327000B9180308EC180308E8190308E71903084C
:10328000F0B58B7A0E0000218DB004925A0704002D
:10329000570F05918A420ED00122317A9B068A434C
:1032A00071895B0F8909029101930499F368009772
:1032B000FFF71EFF05900125337A9D430BD02100B7
:1032C00030000BF0BCFB002F2AD03A0020000499FC
:1032D000FFF7BAFF24E0002F27D12F00E36808AAE8
:1032E000089330003B00A1680BF095FB089B6268D7
:1032F0001360002B07D0A268D318013B1D780A3D4C
:103300006B425D41EDB220000BF0EBFC089BFF1817
:10331000002BE3D1002D03D020001249FFF772FEED
:1033200020000BF0DEFC0DB0F0BD30000BF012FB06
:103330000D4902002000FFF765FE102307AA07933E
:1033400030002B0008A90BF066FB079A002ABCD0BE
:10335000049B2000009308A9059BFFF763FE079BD1
:10336000ED18EAE7F5180308EC180308114A73B5DD
:103370000B0004000568914200D91300052168463E
:103380000D4A0BF099F90600636828000B225B6870
:103390000A490BF046FB63683200280069465B6807
:1033A0000BF03FFB636828001B225B6804490BF0AD
:1033B00038FB73BD0F2700007F2003083319030873
:1033C00017190308012330B500211D00074A084CD6
:1033D0001360A04205D8002900D01360054B186087
:1033E00030BD290040085B00F3E7C0469C85002003
:1033F00040420F009885002070B50D00040046186B
:10340000B44201D1280070BD034B2178186883684D
:1034100001345B689847F3E7B485002010B5024893
:103420000BF05FFC10BDC0463C13030810B502480A
:10343000FFF79CFF10BDC0463C13030810B50348BE
:1034400009F0DEFA024B186010BDC0463F190308B0
:10345000B485002010B50C0008000BF04AFA0F22CA
:1034600021000348FFF70CFF20000BF066FA10BDA7
:103470003C13030870B50500EFF3108672B60B4BD2
:103480001C68002C02D1002E0CD070BD002D07D07E
:103490006368002B02D0064A107898472468F0E74A
:1034A000A368F6E762B6BFF36F8FEEE7B88500203A
:1034B000C0850020074B10B51C68002C08D10122E4
:1034C0001A60054B07CB0BF030FC2000FFF7D2FF52
:1034D00010BDC04634800020C08500207FB56E46F8
:1034E000254C0100050030000BF044FC230007CE02
:1034F00007C3207800283AD00022204B1A606B1CAA
:103500000ED0A3681E4A190D1803002380185941D4
:1035100000231C4AFCF7CAFF0121281A0DF0B6FB54
:103520002578032D15D8002D18D109F023FD012091
:10353000FFF7A0FF20686168A2680BF0FFFB002D79
:1035400001D000F081F8FFF7B5FF09F0AFFD20785A
:103550000DE02B1F012B0CD90025E6E70BF005FC35
:1035600001250028E1D000F06FF80020207004B0A1
:1035700070BD0BF0F5FBF3E7C08500203480002020
:103580003F420F0040420F00F7B5164C200009F0F3
:103590002DFA0023144A01909900885800280ED172
:1035A0002668012419000200A446104D104F2B80FC
:1035B000019CA24206D3002800D02980F7BD013328
:1035C0009BB2E9E754013419A469002C06D0002B02
:1035D00004D1481C4900CA5381B26046013292B2FC
:1035E000E6E7C046CC8500204C130308E89800208D
:1035F000EC980020002370B505000F4E33800F4B70
:103600001C88013C631C01D1002070BD0C4B620082
:10361000D35A0C4A5B0110682900C01800231A0015
:103620000BF08FFB0300863301D00028EDD13388E7
:1036300001333380E5E7C046EA980020E89800208F
:10364000EC980020CC85002070B50D4B0D4D1A88EC
:103650002C88A41A0022A4B21A802B88A34200D876
:1036600070BD094B6200D35A084A5B011068012102
:10367000C018002301341A000BF063FBA4B2ECE77E
:10368000EA980020E8980020EC980020CC850020E3
:1036900010B5074809F0B4F9064B074C1860200034
:1036A00008F070FC2000FEF793FD002010BDC0461E
:1036B0003F190308D0850020BD36020870B504000C
:1036C000074D0A2804D1286883680D215B68984754
:1036D00028688368E1B25B689847200070BDC046E7
:1036E000D0850020F8B504000E000127C50055194B
:1036F000B44200DBF8BD3B00A3400749CA681A404A
:10370000934206D1CB602B68002B02D02000696861
:10371000984701340835EBE700080058064B0200D3
:10372000185601239340054910B5CC6F2343CB674E
:1037300008F0C8F910BDC0467D19030804080058F8
:103740001F2805DC012282400249CB6F9343CB67DF
:103750007047C0460408005810B50400080003294B
:103760000CD80123104AFCF7B5FC020A0E16A34040
:1037700011689943116051689943516010BDA3408D
:1037800011681943F6E7A340516819435160116865
:1037900099431160F2E7A340116819431160516821
:1037A0000B435360EAE7C04600080058064B10B5CB
:1037B000C400E058002803D1E1501B195A6010BD25
:1037C00010204042FBE7C046308600200022034B19
:1037D000C000C2501B185A607047C0463086002097
:1037E0000B68042B01D9062B04D10020034B1B6866
:1037F0001360704786204042FBE7C046C48000202B
:10380000002310B588B003930493059306930793A0
:103810000BF074FB68460BF069FBB0238021DB05DD
:103820001A68C9000A4207D1802218685200024370
:103830001A601A680A42FCD0B0240322E405A36887
:1038400093431A0001231343F022A360A368934318
:10385000A360E43AA3681340042BFBD123680C4A0D
:10386000684613402360802322689B031343236030
:1038700003A909F033F800202368064A13402360A7
:1038800023680332FF329343236008B010BDC04663
:10389000FFFFFFFEFFFEFFFFF0B585B004000291C1
:1038A000002902D1002005B0F0BD00260196F023CA
:1038B00025681D4226D16268D03B1A430192FF223F
:1038C0002B0B1B011340290AF03A1140114A1943EE
:1038D0009B089F5803913800012108F029FC00281B
:1038E000E1D1FF232B40002F06D00F22039938008F
:1038F0001140019A0CF0DCFD029B013608349E4217
:10390000D5D1CFE7FF232B40102BD8D12033019303
:10391000D5E7C04650130308044BD86980B2D96973
:10392000020088B28242FAD17047C046007C004053
:1039300002220F4B10B51968114217D09968114235
:1039400014D0EFF3108172B6586802435A60986938
:10395000084A80B2136801301B181360002902D195
:1039600062B6BFF36F8FC00809F0E6FD10BDC04618
:10397000007C004068870020B0238022DB0513B55F
:10398000996D12060A439A659A6D0224D20FD207E6
:103990000192019A9A6B520052089A638023314A2D
:1039A0005B0011680B43042113602F4B1A688A4394
:1039B0001A60012219680A431A601A682242FCD070
:1039C000802219680B200A43C0211A60274A090384
:1039D00013680B4313600022110008F07FF80B20DE
:1039E00008F070F80122224B2248D9689143D9602F
:1039F000D9680140D960D9681F480140D960D968A9
:103A00001E480140D960D9681D480140D960D96875
:103A10001C480140D960D9681B480140D9609968A9
:103A2000914399605968114359609968214399609D
:103A300059680C4310215C605868014300205960AC
:103A40001249086019690A431A619A6910490A43C0
:103A500006219A611A698A43110004220A431A61F5
:103A600016BDC04600040058900000588800005859
:103A7000007C0040FFF1FFFFFFFFDFFFFFFFBFFF04
:103A8000FFFF7FFFFFFFF7FFFFFFF9FF68870020C1
:103A9000FFFF0000B02337B5DB050400421C04D152
:103AA0009A6D520052089A6537BD9A6D002A09DB5B
:103AB0008022996D12060A439A659B6DDB0FDB0726
:103AC0000193019BEFF3108572B6FFF725FF1B49A9
:103AD0008B690A68920703D49BB21B1A012B05D885
:103AE000002DE1D162B6BFF36F8FDDE70303DB0B7F
:103AF0000133DB031A0B631E80246402A34217DB2D
:103B00000F4BDB031B0B013B9B18A34214D202306B
:103B1000984200D2180010230A681A42FCD04A6862
:103B200013434B608B691B0C1B0418438861D7E758
:103B3000002BE6DC0123E4E70148ECE7007C0040D1
:103B4000FFFF000010B5EFF3108472B6FFF7E4FE3C
:103B500002220B4B1968114206D09968114203D01A
:103B60009B699BB20133C018002C02D162B6BFF32F
:103B70006F8F030D00035B04C00B184310BDC046DC
:103B8000007C00404368026930B55B68106800291A
:103B900014D080220124196952020A431A611A6959
:103BA00022431A610022824201D1002030BD25004B
:103BB000954059690132A9435961F4E71A69084CE3
:103BC000224001241A611A69A2431A618142ECD091
:103BD00022008A405D6901312A435A61F6E7C046F6
:103BE000FFFFFEFFF8B519001600069D0369476840
:103BF00000290DD1002D0BD0214B22492248C91A92
:103C00000123C908890119430AF0C3FD16200EE0FB
:103C10007A69AA420DD21A4B1A4A1C48D21A0123B9
:103C2000D208920129001A430AF0BFFD7A204042CF
:103C3000F8BD1B68B3420BD8114A124B31009B1AD6
:103C40000122DB089B0112481A430AF0AEFDDDE7B2
:103C50000124B4407A68D36923409C42FBD00029F8
:103C600005D0002D03D02A0038690DF079F87B6863
:103C700024045A690020A2435A619C61D8E7C046D7
:103C80006411030864110308A5190308BD1903088A
:103C9000D8190308F7B5456804002B0008330769F5
:103CA0000193164E30000CF0B5FE002803D1052616
:103CB00076423000FEBDB36830001B68019998471A
:103CC000061EF4D16B680E491A690A4001211A6177
:103CD0001A698A431A6106223A600A0082409A6190
:103CE0005F69013017435F615F6912043A435A61AB
:103CF0000628F2D120002B689847DAE700820020DE
:103D0000FFFFFEFF82B013B5C918059305AB9C8871
:103D1000FA23A21812B29B009A4203DB044B013132
:103D2000D21812B20160828016BC08BC02B01847DB
:103D300018FCFFFF30B585B000236A46040001A8D7
:103D4000938000930BF0E3F902AD009003A92800E3
:103D500000F0FEF86946029B009A89889A18AB88A1
:103D60005B18FA211BB289008B4203DB0449013244
:103D70005B181BB220002260A38005B030BDC04696
:103D800018FCFFFF73B50C00FA2105008900200024
:103D9000FCF7BEF908220600002168460CF0E9FF96
:103DA00001A9684600F0D4F8FA226946009B920007
:103DB000F31856438988A41B611809B2914203DBAA
:103DC000034A0133891809B228002B60A98076BD07
:103DD00018FCFFFF054A10B51368002B01D0002125
:103DE0005972436110600BF03FF910BDD487002079
:103DF00070B50400EFF3108572B600280FD0194E8D
:103E000032681300002B10D16368236001232381E3
:103E1000002A0ED100F0D0F82000FFF7DBFF002DC4
:103E200002D162B6BFF36F8F70BD9C42F7D05B6961
:103E3000E8E700F095F82368C018336820601A6836
:103E40009042E9D35A695969002902D15C616161E4
:103E5000E5E71168884202D913005269F3E75C6113
:103E60006261DCE7D4870020F8B500F0ADF805000A
:103E700000F0A2F81A4C2368002B15D01A00471B3B
:103E80005269002A06D159691A72DA682160002A3B
:103E900008D1FEE711680026B94201D949190E1A66
:103EA0001660EDE7186990472368002B03D120685E
:103EB00000280ED1F8BD1D6800F052F88542F6D2F8
:103EC00023685A69226000221A72DA68002AE9D14E
:103ED000FEE7437A002BEDD10BF0C6F8EAE7C046C7
:103EE000D487002070B5EFF3108572B6144C2368A8
:103EF000002B01D0002805D1002D02D162B6BFF3FE
:103F00006F8F70BD0022027283420FD1597A5E69B1
:103F1000914209D05A72964204D0300026600BF0CC
:103F2000A3F8E9E700F026F82660E5E71A005B69E8
:103F3000002BE1D09842F9D143695361DCE7C046D8
:103F4000D4870020014B186059607047D887002043
:103F5000024B1A685B6802600B607047D8870020CC
:103F600010B50BF0C8F8024B1B68C01A10BDC04654
:103F7000E087002010B502480CF0B2FE10BDC0462C
:103F80002083002007B50021030D02030848801894
:103F90005941FA2200239200FCF788FA02000B0034
:103FA0000020002100900191024809F077FB07BD35
:103FB000E70300002083002010B50BF09CF8014BB4
:103FC000186010BDE0870020014B18687047C0469C
:103FD000E0870020014B18607047C0464C800020ED
:103FE000094B70B51A68050008480C005043084A90
:103FF000084980181860FCF711F90800611B0131AD
:10400000FCF7F6F9481970BD4C8000206D4EC64192
:1040100039300000FFFFFF7F044B013A92B29A4211
:1040200000D1704701700130F7E7C046FFFF000084
:10403000044B013A92B29A4200D1704701700130AC
:10404000F7E7C046FFFF00000823074810B50360EC
:1040500008F082FA002805D02121044B044A0548C3
:1040600009F01CFC10BDC046EC8700207B1903083A
:10407000251A0308FE19030807B50120084A916EA6
:1040800001439166936E00220340110001931E309C
:10409000019B07F023FD1F2007F014FD07BDC0465C
:1040A000FC000058F8B51C4C200008F0A9FC1B4D82
:1040B00006692860C022836804211B68D2009847E3
:1040C000002803D1102332689A433260200008F0A0
:1040D00097FC134E3060200008F092FC114C2060D9
:1040E000114F380008F08CFC104B1860380008F0B5
:1040F00087FC0F4B00221860042128680BF037F86A
:104100003068002205210BF032F8206800220321DC
:104110000BF02DF80020F8BD191A0308F8870020CD
:10412000FC870020008800201F1A0308E487002075
:10413000E887002070B5032815D8164B164D174C8C
:10414000FBF7C8FF02131F261868002204210BF09A
:104150000EF80022052128680BF009F8002203213F
:1041600020680BF004F8002070BD012204211868BB
:104170000AF0FDFF0022052128680AF0F8FF01225D
:10418000EDE70122042118680AF0F1FF0122F2E7AD
:104190000022F7E7F8870020FC8700200088002035
:1041A00010B5034B02000C2118680AF0E0FF10BDA7
:1041B000E487002010B5034B02000D2118680AF0B7
:1041C000D6FF10BDE88700200022044BDA600432DD
:1041D0005A60033A9A6002321A60704704880020DD
:1041E00000487047048800200B00F0B5103BDBB29C
:1041F0000F00140087B0102B05D801229A4013003D
:104200003B4A134205D10023FF20F034237007B04E
:10421000F0BD00239F4255D13B0022001C339B0080
:10422000DBB205931B09013BF032137001233D0003
:10423000304E049363191A1F127839000092DA1E67
:104240001278280001929A1E013B12781B78029284
:104250000393FBF7E3FFC9B2002937D1019B1B3160
:10426000F25C049B5A40029BF35C0193039BF35C5A
:104270000293009B0092F35C0393049BDB094B4386
:10428000049949004B40DBB20493EB1BDBB2E25CC8
:104290000099E318514061555A780198691C5040C3
:1042A000C9B260549A780298611950408870DB78DE
:1042B000039A04355A40059BEDB2CA70AB42B9D897
:1042C0000020A4E7C25CE2540133A3E7182FDCD935
:1042D0001029DAD1009BF35C0093019BF35C0193FE
:1042E000029BF35C0293039BF35C0393CDE7C04610
:1042F00001010100341C0308F0B5A5B016001F91A0
:10430000F03212780300FF20002A00D18AE0320048
:10431000190020A80AF087FF01252A01B3189C463E
:1043200020AB1B78019320AB5B79029320AB9F7A83
:10433000914BDA5D039220AAD27B04929A5C05929B
:10434000019A985C029A9A5C069220AA12790792C6
:1043500020AA527A089220AA927B09929A5C0A9229
:1043600020AAD2780B929A5C0C92079A9A5C0D92D2
:10437000089A9A5C0E9220AA127A0F9220AA527B77
:10438000109220AA927811929A5C129220AAD27965
:1043900013929A5C14920F9A9A5C1592109A9A5CF6
:1043A000169220AA127B179220AA5278189220AA5D
:1043B000927919929A5C1A9220AAD27A1B929A5CEC
:1043C0001C92179A9A5C1D92189A9B5C1E9333005C
:1043D000F0331B78AB4227D80D9A20AB1A71159A8F
:1043E00018701A721D9A1F981A73069A19005A703B
:1043F0000E9A5A71169A5A721E9A5A73039A9A70A2
:10440000129A9A720A9A9A711A9A9A731C9ADA7381
:10441000149ADA720C9ADA71059ADA7062460AF026
:1044200002FF002025B0F0BD544B019C0599039A72
:104430001C5D4A4054400299514A0135515CEDB22D
:104440004C4020A90C70029C05991C5D41406140C4
:10445000D45D614020AC617006994840D95D484008
:104460000499515C4840A070039906984140019816
:10447000105C48400499595C4140E1700C980A99DD
:1044800041400798185C41400898105C41402171F8
:104490000D980C9941400898185C41400998105CAF
:1044A000414061710E980D9941400998185C414056
:1044B0000B98105C4140A1710E980A9941400798F1
:1044C000105C48400B99595C4140E1711498129975
:1044D00041400F98185C41401098105C4140217297
:1044E0001598149941401098185C41401198105C3F
:1044F000414061721698159941401198185C4140ED
:104500001398105C4140A1721698129941400F987F
:10451000105C48401399595C4140E1721C981A990B
:1045200041401798185C41401898105C4140217335
:104530001D981C9941401898185C41401998105CCE
:10454000414061731D991E9841401998185C414083
:104550001B98105C4140A1731E981A99414017980E
:10456000125C20004A401B995B5C61465340E37338
:104570000AF018FED1E6C046341C0308341A0308BA
:10458000341B030830B5094C00222500237C8342EC
:1045900006D11123002053431033EB180B6030BDBC
:1045A000013211340A2AF1D10320F8E73A810020C0
:1045B00013B5AA2204000E490E480AF0BAFD01A95B
:1045C0000020FFF7DFFF01A90120FFF7DBFF01A9B2
:1045D0000320FFF7D7FF022001A9FFF7D3FF002C2C
:1045E00000D1054C054B1C60A047002016BDC046FD
:1045F000341D03084A81002007F5020814880020B2
:10460000010010B50220002904D00348BA220AF0A4
:1046100090FD002010BDC0463A810020BA230360FF
:10462000004870473A8100207FB5194A0C000023EA
:104630001500117C0133814225D111225343154EBF
:10464000ED18802816D10021053A01A800910CF040
:1046500090FB6B467F22102120000AF0A8FF102259
:104660000400694628000AF064FD3368984720007A
:1046700004B070BD2100102228000AF05AFD3368F2
:1046800098470024F3E711320A2BD2D10324EEE736
:104690003A8100201488002013B504000220002C69
:1046A00005D0034B5B69019398472060002016BD3D
:1046B00084140308010010B50220002907D0044823
:1046C00008220AF036FD034B1B689847002010BDF6
:1046D0003A81002014880020004870473A81002069
:1046E000010010B50220002907D0044808220AF072
:1046F00020FD034B1B689847002010BD428100201D
:10470000148800200048704742810020014B18782F
:104710007047C0460F99002007B56B466A46D871AE
:1047200007320123802105480CF03AF86B46DB790B
:104730005A1E9341024A0133137007BDEC870020D3
:104740000F99002007B50422064B83211A7001AA95
:10475000030C1370030A53709070032302480CF08B
:104760001FF807BD0F990020EC87002007B5052230
:10477000064B82211A7001AA030C1370030A5370AE
:104780009070032302480CF00BF807BD0F9900202E
:10479000EC87002007B56A46030C1370030A5370B8
:1047A0000B0CD3700B0A9070137151710623942176
:1047B00003480BF0F5FF0622024B1A7007BDC046F6
:1047C000EC8700200F990020002310B51A00C521A6
:1047D00003480BF0E5FF0722024B1A7010BDC046DC
:1047E000EC8700200F990020002310B51A00D1217A
:1047F00001480BF0D5FF10BDEC870020002310B559
:104800001A00D22101480BF0CBFF10BDEC8700202D
:1048100007B56B46DA1D107001239F2101480BF08C
:10482000BFFF07BDEC87002007B50AF0B9FC6B4657
:104830000138DA1D43425841962110700123024885
:104840000BF0AEFF07BDC046EC870020031C07B588
:104850006020D9071840C90F0843102119400843A8
:1048600008211940084304211940084302216A46DF
:104870000B401843073210700123024887310BF0B8
:104880008FFF07BDEC87002007B5134B01AA9842A4
:1048900009D9E123137008335370022398210F487C
:1048A0000BF07EFF07BD0E4B984203D9D723137040
:1048B0000433F1E70B4B984201D9C123F7E70A4BC8
:1048C000984203D9752313700C33E5E7074B9842E0
:1048D000E3D96B23EBE7C04600E9A435EC87002061
:1048E00080F8A9328044E52D000B6B1B40FC541965
:1048F00013B501AC20706170A270E3702200042334
:10490000952102480BF04CFF13BDC046EC870020F8
:1049100037B56D466870E9706A71EB71040A080A70
:10492000110A1A0A0823A8702971AA7119006A4687
:1049300002482C700BF034FF37BDC046EC870020D6
:10494000072307B5184001AA0B0C53700B0A10700F
:104950009370D1700423972101480BF021FF07BD0C
:10496000EC87002037B50E4D04002B78002B03D1C7
:10497000FFF78AFF01232B7000230A4AE109600632
:10498000FBF794FD01AA030E1370030C5370030A86
:104990009370D0700423862103480BF001FF37BDCC
:1049A0000D9900200048E801EC87002007B56B4610
:1049B00018715971034802238F2101AA0BF0F0FEF0
:1049C00007BDC046EC87002013B501AC01232200CF
:1049D000152103480BF01CFF20784042401016BD03
:1049E000EC87002037B5040001AD03232A00142111
:1049F00017480BF00DFF174B1A782270002A09D0C8
:104A0000012A13D0142200212000FFF711FB0F23ED
:104A100023700AE02B78A26023716B785B425B10F5
:104A2000A371AB785B425B10637137BD2B785B423F
:104A30005B1023730123EB5602339B106373AB7837
:104A40005B425B10A373044B1B682361EDE7C04618
:104A5000EC870020109900201888002007B56B46CD
:104A6000DA1D11700123010001480BF027FE07BD7C
:104A7000EC87002013B505220400094B9721094853
:104A80001A70FFF7EBFF01AA230C1370230A53706F
:104A900082210323947004480BF082FE13BDC046AC
:104AA0000F990020AC080000EC87002007B56B468A
:104AB0006A46D871A0210123074807320BF070FE27
:104AC0006B46D9793F2906D9C908C9000131034885
:104AD000C9B2FFF7C3FF07BDEC870020060700003F
:104AE00013B56B46DC1D074B011E1870207002D1F8
:104AF0000548FFF7B3FF012322008A2103480BF08A
:104B00004FFE13BD10990020AC060000EC8700207A
:104B100037B50400082268462C490CF021F92C4BCB
:104B200020781B78834201D0FFF7DAFF2078032832
:104B300024D8284DFBF7CEFA0231233A6168264883
:104B4000FBF7E6FA6A46030C1370030A9070537081
:104B5000237BA068D370637BC109137140060023D7
:104B60001E4AFBF7A3FC6A46030C5371030A9371B8
:104B70000823D0718B2128000BF012FE37BD21696C
:104B80001548FBF7C5FA6A46030C1370030A537005
:104B90009070237DD3700423ECE76A46237E137064
:104BA000637E5370A37E9370E37EF3E761680A48E7
:104BB000FBF7AEFA6A46030C1370030A5370907049
:104BC000237BD370637B13710523D3E7D4120308CF
:104BD00010990020EC8700200000093D0048E80102
:104BE00013B56B46DC1D01000123220002480BF0C7
:104BF0009DFD207816BDC046EC87002010B504004E
:104C00000AF0CEFA01280AD10548FFF7E9FF06238A
:104C10000100994321430248C9B2FFF71FFF10BDAD
:104C20002309000070B5002801D0174B186000253B
:104C30000220FFF7E3FFFFF707FA144B28001D706F
:104C4000FFF76AFD0AF0AAFA0400012812D10AF05F
:104C5000A3FA81012000FFF773FE0D482900FFF73A
:104C6000FDFE7F20FFF7F2FDFFF71CFA0122094B42
:104C70001A7070BD20210648FFF7F0FE202106487B
:104C8000FFF7ECFEF0E7C0461C8800200D990020DD
:104C9000110900000F9900201209000013B5041C2F
:104CA0000020FFF747FA0220FFF7A8FF06206B4617
:104CB0002040E407E40FDA1D044301238421044863
:104CC00014700BF06DFD0022024B1A7013BDC0462C
:104CD000EC8700200F99002010B50C4B04001B78C6
:104CE000002B11D1D720C000FFF77AFF0123210A42
:104CF000984319400143D720C9B2C000FFF7AEFE68
:104D00000348E1B2FFF7AAFE10BDC046109900208B
:104D1000B906000037B503000D001400012823D1A7
:104D2000020000210F2D16D10620FFF7E1FD2B1CFC
:104D30005AB20E2A00DD0E2318215DB21848FFF783
:104D40008DFE6B468E211D715C7101AA02231548F0
:104D50000BF026FD37BD0420FFF7CAFD2B1C1135D3
:104D6000E6DA114B1B78E3E71048FFF739FF1E2105
:104D70000143C9B20D48FFF771FE0123002207214C
:104D80000420FFF7B5FD2B1C093501DA084B1B7811
:104D90005AB2162A00DD162338215DB2CEE7C0468E
:104DA000E7080000EC870020DE1D0308D80800009B
:104DB000DF1D030837B5022304000D000C48132142
:104DC00001AA0BF025FD0B4B1B78012B0BD10A4BD5
:104DD0001B78012B07D10948FFF702FF20706B46B3
:104DE0005B792B7037BD6B461B792370F7E7C046A4
:104DF000EC870020109900200E9900200207000087
:104E000010B513000A00010001480BF057FC10BD5B
:104E1000EC87002007B56A46030A1371054B5071F1
:104E20001B78002B04D10222034801A9FFF7E8FFF9
:104E300007BDC04610990020BC06000007B56A46B1
:104E4000030A1371054B50711B78002B04D1022209
:104E5000034801A9FFF7D4FF07BDC0461099002001
:104E6000BE06000030B505002B4985B001AC092213
:104E7000200008310BF074FF284B28781B78834200
:104E800001D0FFF72DFE2878032825D8FBF722F95B
:104E9000023430026B7AF12B20D12148FFF7BAFFA0
:104EA0002048FFF7CBFF0223E371AB7A6A882372B5
:104EB0000923110A62702A792170A2706A79E2705E
:104EC000AA792271EA7962712A7AA27122008C2170
:104ED00015489BB20BF064FC05B030BDF22BE3D15A
:104EE0001248FFF797FF1248FFF7A8FF0623DBE7FA
:104EF0002B7B23700123E9E7EB891A0A2270637088
:104F00000C4A2B7C1370A3706B7CE370AB7C237119
:104F1000EB7C63710623D9E7D412030810990020B3
:104F2000FFFF000005800000EC8700200F1D00003F
:104F3000211000000E99002010B513000A00010096
:104F400001480BF0F3FB10BDEC870020F0B5002703
:104F5000154E85B030000397FFF742FEFE21134D3A
:104F6000014004003000FFF779FD2800FFF738FE0C
:104F70007F21019001402800FFF770FD0C48FFF7EA
:104F8000F5FB042203A90B48FFF7D6FF3800FFF713
:104F9000C3FB21003000FFF761FD28000199FFF7F6
:104FA0005DFD039805B0F0BDE2080000E5080000D3
:104FB000FFFFFF001908000010B513000A000100F0
:104FC00001480BF0A7FC10BDEC87002010B51300C2
:104FD0000A00010001480BF0CFFC10BDEC87002057
:104FE00010B5024B01201B68984710BD1C8800209B
:104FF00010B5024B02201B68984710BD1C8800208A
:1050000010B5024B40201B68984710BD1C8800203B
:1050100010B5002902D0012905D010BD8020044B15
:105020001B689847F9E78020014B40001B68F8E7B0
:105030001C880020802010B5024B80001B68984718
:1050400010BDC0461C88002010B5024B20201B68F4
:10505000984710BD1C88002010B5024B04201B6827
:10506000984710BD1C88002010B5024B08201B6813
:10507000984710BD1C88002010B5024B10201B68FB
:10508000984710BD1C88002070B50D000400054B2A
:105090000021563318780AF053FB29002000FFF74F
:1050A00079FB70BD3C880020002010B5FFF782F826
:1050B000044B1B68002B03D05B68002B00D0984783
:1050C00010BDC04620880020002010B5FFF768F80A
:1050D000044B1B68002B03D0DB68002B00D09847E3
:1050E00010BDC04620880020F7B5604C2300543323
:1050F0001D88402D00D16EE007D8022D2DD0202D27
:1051000000D1A5E0012D16D0F7BD80235B009D42A4
:105110006DD0DB189D4278D0802DF5D10020FFF7AF
:10512000FBFA534B1B68002BEED09B690020002B31
:10513000EAD09847E8E70020FFF73CF84D48FEF733
:10514000D1FE0020FFF7E8FA494B1B68002BDBD0AB
:105150001B68002BD8D09847D6E70020FFF720F82F
:105160004548FEF7BFFE6678002E0ED13000FFF7EF
:10517000D3FA31004148FFF771FC4148FFF730FD99
:105180000543E9B23E48FFF769FC6B463D4EDF1D23
:10519000FF22390030000AF0BDFA20002430FFF76A
:1051A00021FC334B1B68002BAED09D68002DABD08B
:1051B000631DDB7F3978012B09D1230031331B7844
:1051C00030345BB200223000A256A8479CE7E36A65
:1051D00029345BB2F6E76078002801D1FFF79CFA2A
:1051E000234B1B68002B00D18EE71B69B1E7002021
:1051F000FFF792FA1E4B1B68002B00D184E79B69D6
:10520000002B00D180E7012093E7FFF77FFA042805
:105210000FD10020FEF7CEFF1648FEF763FE0020F8
:10522000FFF77AFA124B1B68002B00D16CE75B6822
:105230008FE7FFF76BFA052800D065E70020FEF73F
:10524000AFFF0D48FEF74EFE0020FFF765FA05E0C0
:105250000948FEF747FE60780028F6D0044B1B682B
:10526000002B00D150E7DB6873E7C0463C88002084
:105270002088002094880020248800200209000053
:10528000440900001199002010B5034B54331880D5
:10529000FFF72AFF10BDC0463C88002010B5FFF77D
:1052A00035FA031FDBB20020032B01D8014AD05C82
:1052B00010BDC046E31D030870B50D001400FFF7D4
:1052C00051FB28000AF050FA01210AF039FAFFF7E1
:1052D0008BFAFA2189006143034C200009F0E1FEBA
:1052E0002000FEF785FD70BD948800200023124940
:1052F00070B51A0004000800FFF70AFB002C07D065
:105300000E4D2100280009F0CCFE2800FEF770FDAC
:105310000120FEF745FF0A4C002123005633187880
:105320000AF00EFA6378002B03D00648FFF71EFA46
:1053300070BDA0688001F9E7FFFF0000248800200D
:105340003C880020FFFFFF000023F0B50C0050490F
:105350001A008DB006000800FFF7DAFA0120FEF708
:1053600029FF4C4D01212B00563318780AF0E8F93B
:10537000287803280DD8FAF7ADFE1602181CEC7732
:1053800028000E30FFF76EFD0022210030000AF0E9
:10539000B9F9414C6968200009F083FE2000FEF74E
:1053A00027FD0DB0F0BDAC75EAE70223AC76AB7318
:1053B000E6E700271F22390004A803970BF0D9FC69
:1053C000380003AAA7423BDB00220721E300019338
:1053D0008C46130001998A4238D19901DA010A43B7
:1053E00059424B415B011343280003AF3B55022355
:1053F000661C0E30F6B2AB73AE76FFF733FDAB6CC6
:105400000021F120642B36D1FFF728FB0021F0208A
:10541000FFF724FB7021F320FFF720FB1D21F22072
:10542000FFF71CFBE100F4208C1C090AFFF716FBB8
:10543000F520E1B2FFF712FB31003800174AA6E76A
:10544000F35DB854DB43F3550137BBE76746D11032
:10545000715C97433941012001404B40614618007F
:105460000132914388400100D71003A8C05D014379
:1054700003A8C155AEE7FFF7F1FA0021F020FFF7CE
:10548000EDFAE121F320FFF7E9FA0421C7E7C0466E
:10549000010200003C88002094880020FFFFFF00EC
:1054A00010B500280CD000230649DA005218146801
:1054B000A04201D2107910BD0133162BF5D1FEE7C1
:1054C0001F20F8E7D413030810B5094B012807D1B2
:1054D000084AD97711700E331800FFF7C3FC10BDCE
:1054E0005A7D012AFBD1034A99751170F3E7C04632
:1054F0003C880020F48100200023114970B51A0077
:1055000004000800FFF704FA002C07D00D4D21001D
:10551000280009F0C6FD2800FEF76AFC0A4C0021AD
:105520002300563318780AF00BF96378002B03D068
:105530000648FFF79FFA70BDA0688001F9E7C046F2
:10554000FFFF0000248800203C880020FFFFFF00B0
:1055500001220D4B10B50400187358731A7000F037
:1055600017F8002C09D0E8203421C000FFF776FAA4
:1055700044210648FFF772FA10BDE8201421C0004C
:10558000FFF76CFA2421F4E73C8800204107000073
:10559000012010B5FFF7A4FA044B187B5A7B824216
:1055A00002D05873FFF7D4FF10BDC0463C880020DE
:1055B00010B50B4C207003280CD004280ED0012805
:1055C00005D00020FFF78CFA0023637310BDFFF7AE
:1055D000DFFFFBE70220FFF783FAF7E70020FAE797
:1055E0003C880020F0B587B017000EAA128806008C
:1055F00000920FAA12781800019210AA12780CAB30
:10560000029213AA20CB12781B7894465C4C03912B
:10561000012E54D0032E3ED0002E49D12300383322
:105620001E7023000B2244331A70E563FFF738FF26
:10563000230045331870009B019ADB002382514BF5
:105640000299638201235A4062752764F222A6738D
:105650002675002900D11A00250038352376E27519
:105660000AF0AFF82878431E9841C0B2FFF7A0FFB8
:105670002800FFF74DFA20000E30FFF7F3FB082259
:10568000414904A80BF06CFB04A80AF02BF83F4832
:10569000FFF722FB0CE03000FFF78AFF2000022317
:1056A00038300370A56414334C342370FFF730FA9C
:1056B0003748FFF795FA04210143C9B247E02200B9
:1056C0002100383250311670EAB20A702100314F91
:1056D00051313F5C0F70210052310B70002844D1D2
:1056E0000B3DAE424041C3B22549053A0800533054
:1056F000037001238B739A423FD8009B0B2B3CD83D
:105700000C238B83019B029AA377234B25001B78E4
:105710003835E377631CDA776246A31CDA770AF040
:1057200050F82878431E9841C0B2FFF741FF280087
:10573000FFF7EEF9200051340E30FFF793FB23788A
:10574000062BB5D11248FFF74BFAFB210140104858
:10575000FFF784F903980AF007F8094B1A0056324C
:105760001070149A5A6007B0F0BD00230128BBD115
:105770000C3D6B425D41EBB2B6E7009BC1E7C04612
:105780003C88002004180000E5120308FF01000017
:1057900089080000E01D0308F4810020F0B589B0FD
:1057A0001E000FAB1B880092029310AB1B880F00EA
:1057B000019311AB1B7806A9039312AB1A7813ABB4
:1057C0001B789E4C049321235B18DB7F0500059317
:1057D00025235B18DB7F637059424B4101995B4283
:1057E0001940039B0191002B00D1FF22944B1A70AA
:1057F000012D00D1B9E0042D47D0002D00D0B2E03A
:105800002800FFF705F88D4E0B22330038331D704A
:10581000009B3800F363330044331A70FFF740FEF7
:10582000330045331870029B854ADB003382854B79
:10583000039F73820123127804995F40B275B57398
:10584000F22235757775002900D11A002500383508
:105850002376E27509F0B5FF2878431E9841C0B25F
:10586000FFF7A6FE2800FFF753F920000E30FFF7E0
:10587000F9FA0822744906A80BF072FA06A809F092
:1058800031FF7248FFF728FA65E000260120FEF795
:10589000BFFF6F4B694C1E70009B0922E36323001E
:1058A00044331A70C82338009B002364FFF7F8FDC7
:1058B000230045331870029B2800DB0023828023DD
:1058C0005B0163825E4BA6821B78A673A3750123DE
:1058D0002676E375FFF76CFE5D48FFF719F92000A7
:1058E0000E30FFF7BFFA584908363200891906A86A
:1058F0000BF036FA06A809F0F5FE5448FFF7ECF96C
:105900005448FFF76DF9EF2101405248FFF7A6F820
:1059100029005148FFF7A2F85048FFF761F91C230E
:10592000010099433143C9B24C48FFF797F84C48FE
:10593000FFF756F918210143C9B24948FFF78EF81D
:105940004848FFF74DF97023502198430143C9B2ED
:105950004448FFF783F8FA20019B4001584300991F
:10596000FAF7D6FBA06009B0F0BD0020FEF750FFAB
:10597000324B3D491A00383215706A4610781A00C9
:10598000503210701A00C95D513211701A00523233
:105990001670002F41D1009A0B3A95427F41FAB21E
:1059A000190053310A7001220538244D9A73904230
:1059B0003CD8029A0B2A39D80C229A832700039BE1
:1059C000049AA3771E4BA61C1B783837E377631C19
:1059D000DA77059BF37709F0F4FE3878431E984197
:1059E000C0B2FFF7E5FD3800FFF792F820000E3057
:1059F000FFF738FA6B461879FFF758F8F37F04245D
:105A00001A48012B15D1FFF7EBF8A043C1B2174894
:105A1000FFF724F8164BAB60A5E70022012FBFD19A
:105A2000009A0C3A51424A41D2B2B9E7029BAB8389
:105A3000C4E7FFF7D5F80443E1B2E8E73C8800206B
:105A4000F481002004180000E5120308FF010000A3
:105A500074880020B8080000B90800009B08000006
:105A6000D1060000AC060000E01D03083607000068
:105A7000FFFF0000F0B587B00292002203930500FB
:105A800004AB0C0004925A6001285AD0022800D1BD
:105A9000A0E0904244D18A68002A00D1AEE00969B2
:105AA0000191002900D1A9E0277D082F00D9A5E0A8
:105AB000AF4241DC0026534D534BEA631E702B006E
:105AC000227844331A706068FFF7EAFC2B004533F4
:105AD0001870E368AE732B64019B2E75DB002B827C
