:020000040800F2
:10000000C00F0020811F000841430008AD1F0008F9
:10001000AD1F0008AD1F0008AD1F00080000000064
:10002000000000000000000000000000751D000836
:10003000AD1F000800000000211D0008551A00082F
:10004000591F0008591F0008591F0008591F0008B0
:10005000591F0008591F0008591F0008591F0008A0
:10006000591F0008591F0008591F0008591F000890
:10007000591F0008591F0008591F0008591F000880
:10008000591F0008591F0008591F0008591F000870
:10009000591F0008591F0008591F0008591F000860
:1000A000591F0008591F0008591F0008591F000850
:1000B000591F0008591F0008591F0008591F000840
:1000C000591F0008591F0008591F0008591F000830
:1000D000591F0008591F0008591F0008591F000820
:1000E000591F0008591F0008591F0008591F000810
:1000F000591F0008591F0008591F0008591F000800
:10010000591F0008591F0008591F0008591F0008EF
:10011000591F0008591F0008591F0008591F0008DF
:10012000591F0008591F0008591F0008591F0008CF
:08013000591F0008591F0008C7
:1001380053B94AB9002908BF00281CBF4FF0FF3146
:100148004FF0FF3000F074B9ADF1080C6DE904CE42
:1001580000F006F8DDF804E0DDE9022304B070479A
:100168002DE9F047089E0D4604468846002B4DD1E0
:100178008A42944668D9B2FA82F252B101FA02F37D
:10018800C2F1200120FA01F10CFA02FC41EA03084D
:1001980094404FEA1C45210CB8FBF5FE1FFA8CF77A
:1001A80005FB1E8341EA03430EFB07F199420BD975
:1001B8001CEB03030EF1FF3080F01E81994240F2E0
:1001C8001B81AEF1020E63445B1AA4B2B3FBF5F0D7
:1001D80005FB103344EA034400FB07F7A7420AD99A
:1001E8001CEB040400F1FF3380F00881A74240F2C1
:1001F800058164440238E41B40EA0E4000211EB128
:10020800D4400023C6E90043BDE8F0878B4208D9F3
:10021800002E00F0EE800021C6E900050846BDE882
:10022800F087B3FA83F100294AD1AB4202D3824264
:1002380000F2F980841A65EB030301209846002E2A
:10024800E2D0C6E90048DFE702B9FFDEB2FA82F27F
:10025800002A40F09180A1EB0C054FEA1C471FFAD9
:100268008CFE0121B5FBF7F307FB1350250C45EA7B
:1002780000450EFB03F0A84208D91CEB050503F165
:10028800FF3802D2A84200F2CB8043462D1AA4B20E
:10029800B5FBF7F007FB105544EA05440EFB00FEDA
:1002A800A64508D91CEB040400F1FF3502D2A64587
:1002B80000F2BB802846A4EB0E0440EA03409EE708
:1002C800C1F120078B4022FA07FC4CEA030C20FA04
:1002D80007F405FA01F31C43FD404FEA1C4900FAF4
:1002E80001F3B5FBF9F8200C1FFA8CFE09FB185531
:1002F80040EA054508FB0EF0A84202FA01F20BD9C4
:100308001CEB050508F1FF3A80F08880A84240F20E
:100318008580A8F1020865442D1AA4B2B5FBF9F04E
:1003280009FB105544EA054500FB0EFEAE4508D909
:100338001CEB050500F1FF346CD2AE456AD90238D2
:10034800654440EA0840A0FB0294A5EB0E05A542CF
:10035800C846A64656D353D05EB1B3EB080265EB48
:100368000E0505FA07F722FA01F3CD401F43C6E947
:1003780000750021BDE8F087C2F1200320FA03F1DF
:100388000CFA02FC25FA03F395400D434FEA1C478B
:100398001FFA8CFEB3FBF7F107FB11302B0C43EA75
:1003A800004301FB0EF0984204FA02F408D91CEB52
:1003B800030301F1FF382FD298422DD90239634443
:1003C8001B1AADB2B3FBF7F007FB103345EA034540
:1003D80000FB0EF3AB4208D91CEB050500F1FF3812
:1003E80016D2AB4214D902386544ED1A40EA0141ED
:1003F80038E73146304607E78646E5E61846FAE626
:100408004B45A9D2B9EB020864EB0C0E0138A3E7FF
:100418004046EAE7204694E74146D1E7D0467BE7E5
:10042800023B654432E7084609E76444023842E77C
:10043800704700BF10F8012B11F8013B012A28BFB3
:100448009A42F7D0D01A7047034613F8012B002AB6
:10045800FBD1181A01387047F8B5012002F0DAFA12
:100468000A4C0B4B0B4E0C4DE41AE408A401002770
:1004780044F003043946304603F052F8D5F88410A6
:100488000648224689B203F013FBF3E7784C0008CC
:10049800784C0008A086010000400058224F000850
:1004A8000B6801330B60014B1B68184700000020E4
:1004B800014B1860704700BF0000002007B50B46CD
:1004C800002102460191034801A900F079F803B020
:1004D8005DF804FBA904000830B585B0CDE9010139
:1004E8000446002501A90548039500F069F8DDE9EF
:1004F80002309842B8BF255405B030BDB139000864
:10050800F0B5084E026803460A270020114601325A
:100518000C78A55D6D0701D41960F0BD07FB00409C
:100528003038F3E7A85600082DE9F84F15469A46E3
:10053800D378224A13F802B06F2B80460F460BF08F
:10054800030B29D024D8582B14BF0A261026DDF80F
:1005580028903246002340463946FFF7E9FD092A2C
:10056800D4B21ED83034B045E4B277F1000309F8AC
:10057800014D01D3D14511D82B789B0605D5082EFE
:1005880015D1AB7843F00803AB704846BDE8F88F47
:1005980003F0F703702BD7E70826D8E780460F4605
:1005A800D7E7BBF1010F0CBF37345734DBE7102E08
:1005B800EBD1AB7843F01003E6E700BFA85600087C
:1005C8002DE9F04F824693B08B4691461C46002594
:1005D80099F8000008B928463DE309F101032528E8
:1005E800029306D05946D0470028C0F2348301351B
:1005F800F5E1182200210CA804F0E2F999F801307D
:10060800252B5AD009F10102164612F8013B2B2B73
:1006180000F08B8079D8202B00F08C80232B00F001
:100628008E809DF8383003F04402442A03D16FF3DA
:1006380086138DF838309DF83830059643F08003DE
:100648008DF8383033782A2B7ED19DF8393043F035
:1006580001038DF83930731C05931A782E2A9DF8FA
:1006680039200CBF0121002161F341028DF83920A6
:100678000BD15A1C05925A782A2A7BD19DF8392029
:1006880042F004028DF839200233194611F8010BA3
:100698006C2800F0B6807DD8682800F084806A282D
:1006A80000F0B9804C2800F0BD809DF839206FF328
:1006B800C6028DF83920194680E009F1020202923B
:1006C8008DF83B309DF83930D90740F14A8154F80C
:1006D800048BB8F1000F07DA9DF8382042F00402C5
:1006E8008DF83820C8F100085A0740F1438154F8C2
:1006F800047B002F80F242819DF839306FF341036B
:100708008DF839304FF0FF3738E12D2B06D0302BDC
:1007180087D19DF8383043F0400303E09DF8383026
:1007280043F004038DF838306EE79DF8383043F015
:100738000803F7E79DF8383043F01003F2E79DF817
:10074800383043F02003EDE705A8FFF7D9FE059BF5
:10075800B34281D09DF838100F90C1F3400242EAAD
:10076800D072520062F07F0201F07D010A438DF8D9
:10077800382071E705A8FFF7C3FE9DF838301090C0
:10078800C3F3400242EAD07060F341038DF8383079
:10079800059B7AE774289DF8392040D07A2884D1BF
:1007A8001346062228E05A78682A9DF8392021D174
:1007B800012161F3C6028DF83920991C0B4613F804
:1007C800012B0293782A9DF839308DF83B2000F2EE
:1007D800C080572A33D8412A03D0453A022A00F26A
:1007E800B8809DF83A30042262F302038DF83A305B
:1007F800012385E01346022262F3C6038DF83930DF
:10080800DCE75A786C2A9DF8392001D10421D0E719
:1008180013460322F0E79DF839300522ECE713462A
:100828000722E9E7BDF8383023F4F04323F0020348
:1008380043F4804343F00203ADF83830BEE7A2F139
:100848005801202900F2858001A050F821F000BF4E
:100858001D0900085B0900085B0900085B0900081E
:100868005B0900085B0900085B0900085B090008D0
:100878005B090008EB0700085B0900081D09000870
:10088800DD080008EB070008EB070008EB07000885
:100898005B090008DD0800085B0900085B0900081F
:1008A8005B0900085B090008250900081D09000804
:1008B800410900085B0900085B09000841090008B4
:1008C8005B0900081D0900085B0900085B090008AE
:1008D8001D0900089DF83A10012003F0780360F321
:1008E8000201402B8DF83A1002BF9DF8381041F0F4
:1008F80001018DF83810632A31D1003B18BF01235C
:100908009DF83820C2F340010B4363F341028DF890
:100918003820D7E69DF83A100220DEE79DF83A2005
:1009280003F07803A3F14000032161F3020243427C
:100938008DF83A204341E3E79DF83A20032113F06C
:10094800780F61F302028DF83A2014BF01230023C7
:10095800D6E79DF8383043F001038DF8383000238E
:10096800CEE79DF93820002AB4BFDDF83C804FF06F
:10097800FF38B9E69F077FF5C5AE109F9DF839107F
:100988000023CDE90F339DF83A3003F00703012B1C
:10099800C1F3C30139D1CB1E042B23D8DFE803F000
:1009A80003090922220054F8043BDA17CDE90C3276
:1009B80006E0073424F00704F4E80223CDE90C2309
:1009C8009DF8383013F0030657D0029B4A46594623
:1009D800504603F020F80028C0F23D810544DDF8B8
:1009E8000890F5E554F8043B01294FEAE372CDE994
:1009F8000C3205D19DF830300C9300230D93DFE7BE
:100A08000229DDD1BDF93030CFE7022B23D1CB1E2F
:100A1800042B13D8DFE803F0030A0A121200226835
:100A28000C920023201D0D930446C9E7E01D20F019
:100A38000700F0E80223CDE90C23F5E754F8043B5E
:100A48000C9301294FF000030D93D3D00229B7D19D
:100A5800BDF83030D0E7042B09D1E31D23F007039C
:100A680003F10804D3E90023CDE90C23A8E7032BFD
:100A780004BF54F8043B0C93A2E79DF83B00782888
:100A8800ADD8622820D825283FF4ACAD5828A6D187
:100A98000DF12E030093DDE90C0106AB0EAAFFF75A
:100AA80043FD8146002F0DF12E000BDB9DF8382009
:100AB800A0EB09036FF386129F428DF8382001D905
:100AC800FB1A0F9307463CE06338152887D801A224
:100AD80052F820F05B0B0008BD0B0008E70900087E
:100AE800E7090008E7090008E7090008BD0B000846
:100AF800E7090008E7090008E7090008E70900080E
:100B0800170C0008E50B0008E90B0008E7090008C6
:100B1800E7090008350B0008E7090008E50B00089D
:100B2800E7090008E7090008E50B0008002FDDF8D1
:100B380030900ADB3946484603F05DFF09EB0007B1
:100B48000026B9F1000F0CD149E74846FFF77CFCB5
:100B5800F4E70C9B8DF8183000260DF119070DF1FC
:100B68001809A7EB090306B101339DF83A20D0060E
:100B780066D5023352060F9948BF109A0B4448BFF6
:100B88009B18B8F1000F73DD9DF83820A8EB030817
:100B9800C2F38003039353076AD450065ED53EB16F
:100BA80059463046D047002855DB039B01351E4681
:100BB800302354E01E070FD413F0100618BF202668
:100BC800DDE90C23002BBFF663AF524263EB43030E
:100BD800CDE90C232D265BE72B26F1E7002657E706
:100BE8000C9840B30DF12E0300930EAA06AB00211A
:100BF800FFF79AFCBDF83A3003F0EF0343F4F043F3
:100C080043F010038146ADF83A3000264AE70C9BC2
:100C180007293FF6E4AEDFE801F00C04060C0808EB
:100C28000C0C1D70DBE61D80D9E6EA17C3E90052FB
:100C3800D5E61D60D3E62E4F0646A7F1050990E7D5
:100C4800110748BF013395E7184659460393D04723
:100C58000028039B04DA13B0BDE8F08F2023454435
:100C68004246002AA5EB080108F1FF38ECDC0D46E6
:100C78002EB159463046D0470028ECDB01359DF8A7
:100C88003A30D90601D41A0705D559463020D0473D
:100C98000028E0DB01359DF83A30DB0606D59DF8E3
:100CA8003B005946D0470028D5DB01350F9E2E441E
:100CB800731B002B15DC3B464A465946504602F04A
:100CC800AAFE0028C7DB0544A844A8EB0503002BAF
:100CD8007FF785AE59462020D0470028BBDB013579
:100CE800F3E759463020D0470028B4DB0135DFE769
:100CF800504F00084FF01002EFF3118382F3118870
:100D0800BFF36F8F83F31188BFF36F8F024B034AD2
:100D18001A600020704700BF2800002000093D002D
:100D280030B51049104889B0002203F011FE0F4D6C
:100D38000F4900220023CDE9062300240E23CDE924
:100D48000334CDE901440B4B00944FF4407228461C
:100D580002F066F90849284603F006FD204609B066
:100D680030BD00BF850D000820010020580100207B
:100D7800A004002045110008514F0008014802F066
:100D8800C7B900BF0C010020F0B505460F4E002082
:100D980003460246012715F8014B0CB18B4200D3DC
:100DA800F0BD252C02D182F00102F4E7002AF2D02E
:100DB80014F806C01CF0030FEDD0732C04BF07FA1B
:100DC80003F2104301330022E5E700BFA8560008EC
:100DD80010B50A4B0A4A1A604FF47A7000F0C2FC48
:100DE80000F070FA074802F02DFEBDE810400649F1
:100DF80006480423282203F073BC00BF0400002027
:100E08008B3A0008EC02002060190020F402002050
:100E180010B54FF01003EFF3118483F31188BFF37B
:100E28006F8F044802F01EFE84F31188BFF36F8FA2
:100E380010BD00BFEC020020064BBFF35B8F53E8E8
:100E4800002F013243E800210029F8D1BFF35B8F5E
:100E5800704700BFE40200200020064BBFF35B8F01
:100E6800024653E8000F43E800210029F9D1BFF3F7
:100E78005B8F7047E4020020F8B5FFF7EDFF0A4CDE
:100E88000A4D2D1B07462D110026AE4200DBF8BD8A
:100E980063685B792BB123681B6913B13946204617
:100EA800984701361034F0E7A84C0008B84C000801
:100EB800044A054B9B1AB1EBD30F34BF52F83100EB
:100EC80000207047784C0008A84C0008094A43687D
:100ED800801A10B50011084C1960013001221871F0
:100EE8005A71237813B9054802F012F901232370C7
:100EF80010BD00BFA84C00088C0400200C01002085
:100F080070B5114BBFF35B8F53E8005F6A1C43E871
:100F180000210029F8D1BFF35B8F2DB90B4C0C4E83
:100F2800361B3611B54200DB70BD237B4BB12368FD
:100F38009B690BB120469847042200212046FFF701
:100F4800C5FF01351034EDE7E8020020A84C000881
:100F5800B84C0008174B984273B5044602D3164B99
:100F6800984221D315480022002301A901F0F8FF77
:100F78000546E0B90122019BBFF35B8F53E8001FD0
:100F880043E800200028F9D1BFF35B8F019E331D91
:100F98001F221846214603F01BFD7E22034686F8D1
:100FA800232086F824501C46204602B070BD044B0E
:100FB800F9E700BF204A0008A8570008F4020020FB
:100FC800594F000848B1054B984205D3A0339842C1
:100FD8002CBF0020012070470020704760190020B6
:100FE8002DE9F04F474B1B7885B0044603B900B391
:100FF800FFF70EFF054678B1BFF35B8F424B53E80E
:10100800002F013A43E800210029F8D1BFF35B8F94
:101018009CB1284602F01AFE2CB93C4B1B68002BE9
:1010280001DDFFF729FF3A4802F01AFD041E18BF38
:101038000124204605B0BDE8F08F364B1B78E3B994
:101048002B7ADB0719D402F014FE0746284602F073
:10105800DBFD01463846FFF797FEDFF8BC802F4BD3
:10106800DFF8BCB0A3EB0803DB0803932D4BA3EB1D
:10107800080306464FEAD30A36B92B4E2B4FBF1B3F
:101088003F114FF000083AE0B6FA86F1C1F11F09A6
:101098004946284602F0BBFD254B9842014602D33B
:1010A800244A90421AD30846FFF78CFF0246A8B993
:1010B800214B994212D06B890399C3F389138B4250
:1010C80038BF58F833204FEA8A1343F00103ADF8CC
:1010D800003049463B46584602F017FD012303FA03
:1010E80009F126EA0106C7E773685B7923B133681B
:1010F80029465B683046984708F101081036B8451C
:10110800F2DB86E78C040020E0020020E4020020E5
:10111800EC0200208D040020784C0008A84C000840
:10112800734F0008884C0008A84C0008B84C000809
:10113800204A0008A8570008594F000810B5FFF7C3
:10114800DFFE02F005FA0C4B186030B10B4B1B6840
:10115800092B02DD0A4801F0DBFF094C0020FFF7EC
:101168003FFF0028FAD14FF0FF324FF0FF332046FF
:1011780001F0EEFFF2E700BF10030020E0020020BC
:101188000C010020294B37B51B684181044698475C
:10119800E0604FF01003EFF3118583F31188BFF37C
:1011A8006F8F2348214602F051FC85F31188BFF365
:1011B8006F8FBFF35B8F1F4B53E8002F013243E85B
:1011C80000210029F8D1BFF35B8F1B4A127882B146
:1011D8004FF01003EFF3118483F31188BFF36F8F7F
:1011E8000020FFF7FDFE84F31188BFF36F8F03B073
:1011F80030BD124A1B681268002AF8D0012B0AD1A8
:1012080000220023CDE900230D4842F2107200238A
:1012180002F06CFBEBE70A2BE9D1094803F0A4FBC9
:10122800084803B0BDE8304001F072BF0400002058
:10123800EC020020E00200208D04002010030020B2
:10124800200100200C010020F8B50E4F3D7875B93B
:101258000D4C0E4EFFF754FE361B3611B54207DB18
:101268000020FFF7BDFE0028FAD101233B70F8BD2E
:1012780063685B791BB1236820465B699847013531
:101288001034EBE78D040020A84C0008B84C000887
:1012980007B504380190BFF35B8F50E8003F5A1E32
:1012A80040E800210029F8D1BFF35B8F012B03D15F
:1012B800034801A903F02FFA03B05DF804FB00BF4F
:1012C800F4020020024903484023202203F008BA10
:1012D800001A00201403002037B50023094D01939C
:1012E8000120FFF77DFE0446FFF7A6FD002200233C
:1012F80001A9284601F034FE08B1002CF0D101986C
:1013080003B030BD1403002007B50023019307483C
:101318000022002301A901F023FE10B1FFF7DCFF32
:101328000190019803B05DF804FB00BF140300208E
:10133800F0B5037A85B0DC0701901ED4457A2D09F3
:101348001BD0002426460198314602F060FC07466F
:10135800FFF738FE70B134B9019B29461869FFF7C9
:1013680013FD044648B124FA06F3D90702D53846D6
:10137800FFF78EFF0136AE42E5D3019B1A7A92073A
:1013880004D55B69084C0393039B2BB9064801A954
:1013980003F0C1F905B0F0BD1D6803A9204603F0AC
:1013A800BAF90395F0E700BF140300200EB403B5A3
:1013B80003AB014653F8042B04480193FFF700F9E7
:1013C80002B05DF804EB03B0704700BF7B3F000834
:1013D8002DE9F0471D46089B1746DA0604460E46D7
:1013E80005D499064CBF2B492B49FFF7DFFFDFF8DF
:1013F800AC904FF00008A8452DDBDFF8A480DFF89B
:10140800A490DFF898A00025BD4232D2725D49460B
:101418002046FFF7CBFF0135102D23D12249DFF8F5
:101428007C80DFF88890DFF888A02046FFF7BEFFB1
:101438000025AF4229D9725D12F8093013F0970FD1
:1014480008BF2E2251462046FFF7B0FF0135102D68
:1014580014D1BDE8F08749462046FFF7A7FF08F1F9
:101468000108C8E76A07CFD151462046FFF79EFF1B
:10147800CAE741462046FFF799FFCCE76B07D8D16A
:1014880041462046FFF792FFD3E741462046FFF743
:101498008DFFDBE7EE500008ED500008BE4F000856
:1014A800BC4F0008B64F0008C04F0008A8560008F7
:1014B800C24F00082DE9F04F87B011F002060592DF
:1014C8009DF84080BDF9489007461A4601F0010A88
:1014D80001F0080506D011F0440F38D13349FFF761
:1014E80065FF0646BAF1000F0AD0314B314953F86F
:1014F8002820314B3846002A08BF1A46FFF756FF06
:101508003DB12E4B2E4953F828203846FFF74EFFA1
:101518000546B9F1000F16DB059B002B43D00123CC
:1015280003FA08F8274B284C18F0100F18BF1C4670
:1015380049469DF84400FFF7BBFC21460246384661
:10154800FFF734FF0544A81907B0BDE8F08F1F4B1B
:10155800196831B31E4B4FF461661B68B2FBF3F395
:101568004FF47A7BB3FBF1F4B4FBF6F206FB1246B8
:1015780001FB14340BFB04F44FF03C0CB4FBF1FEFC
:10158800B6FBFCF301FB1E440CFB13660BFB04F4D7
:101598000096B4FBF1F1CDE901E10E49FFF706FF32
:1015A8009FE708469DE7084CC2E700BFD34F0008F5
:1015B800204D0008F84F0008C54F0008344D0008BA
:1015C800FB4F0008CF4F0008CA4F00083003002027
:1015D80034030020DC4F000838B50C46E107054607
:1015E80003D5084A0849FFF7E1FEE20608D4A30636
:1015F80028464CBF05490649BDE83840FFF7D6BE26
:1016080038BD00BFC54F0008F84F0008EE5000086D
:10161800ED5000082DE9F0478B7A13F007088AB0DF
:1016280005460E46174622D00A7A4989C3F3C203F3
:10163800C1F38911D243CDE900830291F36802F026
:1016480001023946FFF736FF8146347AE44314F045
:1016580001040ED02946304602F021FBB8F1000FF4
:101668002BD0424639462846FFF7B6FF25E0C1464B
:10167800EBE7B8F1000F26D12746EB68069306AAD8
:101688003B46A968304602F0F6FA069A6B681A607B
:101698003AB1AB68134413F8014CA4F10A035C4255
:1016A8005C41284602F058FC069B1F44002BE4D1FD
:1016B8001CB114492846FFF779FE28460AB0BDE850
:1016C800F04702F049BC304602F0D3FA0E49024610
:1016D8002846FFF76BFE4FF0100A05AA234606A915
:1016E8003046CDF814A002F0C6FA059A002AB8D000
:1016F8004B46009706A92846FFF76AFE059B1C443F
:10170800EBE700BF01500008F84F000873B542F23C
:101718000F738B4228BF0B4605680F4A0446052104
:10172800684602F061F963680C495B6806460B225B
:10173800284602F0A7FA63683246694628465B687D
:1017480002F0A0FA636806495B681B22284602F08B
:1017580099FA02B070BD00BFD15500083F5000088B
:1017680023500008084A10B50123084C13600021D3
:10177800A04204D801B11360054B186010BD4008A1
:101788005B000121F4E700BF3403002040420F0052
:1017980030030020F8B5074F0D4604464618B442FA
:1017A80001D12846F8BD386814F8011B83685B68C6
:1017B8009847F4E74C030020014802F0CDBB00BF76
:1017C800644D00080148FFF7A1BF00BF644D000841
:1017D80008B5034801F054FA024B186008BD00BF71
:1017E8004B5000084C03002010B508460C4602F088
:1017F800FEF9054821460F22FFF70CFF2046BDE8F9
:10180800104002F023BA00BF644D000810B5074825
:10181800074C01F035FA074B1860204600F000FF2E
:101828002046FEF745FE002010BD00BF4B500008C3
:1018380041180008500300200A2838B5074D04460F
:1018480004D1286883680D215B68984728688368F5
:10185800E1B25B689847204638BD00BF50030020BE
:101868002DE9F8430D4F04460E4615464FF0010882
:1018780002F10409B44201DBBDE8F883FA6808FA0A
:1018880004F333EA020207D1FB6055F834301BB188
:1018980059F83410204698470134EBE700080058FF
:1018A800054A0123D2F8801083400B43C2F88030E8
:1018B800024B185600F06ABA000800588350000816
:1018C8001F2809DC05490122D1F8803002FA00F00E
:1018D80023EA0000C1F88000704700BF00080058E4
:1018E80003290FD8DFE801F0020F1723154B012257
:1018F800196802FA00F021EA000119605A6822EA20
:10190800000058607047012303FA00F00D4B1A6875
:1019180002431A60F2E7012303FA00F0094B5A6800
:1019280002435A601A6822EA0000186070470123CF
:1019380003FA00F0034B1A6802431A605A6810430E
:10194800DFE700BF00080058074B10B5044653F8FE
:10195800300028B943F8341003EBC4035A6010BDB3
:101968006FF00F00FBE700BF58030020034B002275
:1019780043F8302003EBC0035A6070475803002037
:101988000B68042B01D9062B04D1044B1B68136088
:10199800002070476FF08500704700BF28000020C6
:1019A8002DE9F84F0E4611B90020BDE8F88F002741
:1019B800DFF85890041DBB4654F8045C15F0F00F8E
:1019C8001ED1226842F0200BC5F30333012159F8D8
:1019D80023804046C5F3072A00F0A0FE0028E4D182
:1019E800EBB2B8F1000F05D05A460AF00F01404695
:1019F80002F009FD0137B74204F10804DCD1D3E74E
:101A0800EBB2102B08BF4FF0300BDDE7744D000828
:101A18004FF0E02310B59A6919699869094B11F4D8
:101A2800803F094901D1824206D21A680C682244D3
:101A38001A604FF0E02212691B680A681344181AEA
:101A480010BD00BFEC030020E803002008B5FFF735
:101A5800DFFF0C4B0C4A186811680844106000221C
:101A68001A600A4A13684FF49651C01AB0FBF1F095
:101A780001FB0033136001F09FFEBDE8084000F051
:101A8800BFBC00BFEC030020E4030020E0030020FB
:101A9800094B102283F82320084B41F2BF221A6019
:101AA800074B002018604FF0E0235A6198611A69CB
:101AB80042F007021A61704700ED00E0E8030020D9
:101AC800EC03002070B52C4D59B1431C0FD14FF0D9
:101AD800E022136923F0010313614FF07F432B6069
:101AE80070BD40F6A653B0F1FF3F08BF1846441E2C
:101AF800002C28DD40F6A6539C42A8BF1C464FF098
:101B08001003EFF3118683F31188BFF36F8FFFF78C
:101B18007FFF1A4A13681844194B106000221A6094
:101B2800184B1B68C21A10D54FF480632B602B68C2
:101B38004FF0E022013B53610023936186F3118843
:101B4800BFF36F8FCCE70024D9E74FF4965101FB20
:101B5800042404F595541B1A1F34B4FBF1F401FB5B
:101B68000431B1F5806F04D9074B9942DED829605A
:101B7800DDE74FF48061FAE7E8030020E403002082
:101B8800EC030020E003002080E8FF0010B54FF0D0
:101B98001003EFF3118483F31188BFF36F8FFFF7FE
:101BA80037FF074B074A1B6812689B1A034484F3E4
:101BB8001188BFF36F8F4FF49650B3FBF0F010BD50
:101BC800E4030020E003002070B51146049D02697B
:101BD80046686BB965B12149214B2248C91AC90821
:101BE800890141F0010101F056FF6FF015000FE087
:101BF8007069A8420DD21A4B184A1B48D21AD2084B
:101C0800920142F00102294601F052FF6FF079007B
:101C180070BD12688A420AD8114A104B13489B1AA1
:101C2800DB089B0143F0010201F042FFDDE70124DC
:101C380070688C40C26834EA0202FBD02BB125B12F
:101C480030692A46194602F0ADFE736859682204C5
:101C580021EA04445C6000209A60D9E7804C0008BF
:101C6800784C0008AB500008C3500008DE5000084C
:101C78002DE9F04146680769054606F10808184C41
:101C8800204602F01BFD20B96FF004042046BDE891
:101C9800F081A36820461B684146984704460028FF
:101CA800F2D173681A6822F480321A601A6822F036
:101CB80001021A6006223A600246012707FA02F07A
:101CC80098605969014359615968013241EA0041F4
:101CD800062A5960F2D1336828469847D6E700BFEC
:101CE80034000020094A0A49936809689967094934
:101CF80058674B6843F080534B60002383F3118887
:101D0800BFF36F8F9368986F704700BF600400201F
:101D1800044F000800ED00E012498A684FF03000D7
:101D28001044EFF3098C80E8F01F102080F311882D
:101D3800BFF36F8F0C4F4FF00066CA698A603E6030
:101D4800506F0023536780F3118804B5104600F0E4
:101D58008FFBBDE8044002F1300090E8F01F8CF3DF
:101D6800098870476004002004ED00E01EF0040FAD
:101D78000CBFEFF30880EFF30980816911F8021CAA
:101D88000229FFD001B502F0D3FA01BD43B2002BFE
:101D980008DB012200F01F0002FA00F05B09024A8A
:101DA80042F82300704700BF00E100E043B2002B77
:101DB800A8BF03F1604301F10101B8BF064B4FEA28
:101DC8000111ACBF03F5614300F00F00C9B2B4BF05
:101DD800195483F80013704714ED00E042F8203CD2
:101DE800009B42F81C3C0A49019B42F8183C029BA4
:101DF80042F8143C21F001014FF0807342F8043C92
:101E080042F8081C0023203A02654367704700BF68
:101E18000B3A0008094A0346906870B113F1160F8F
:101E2800406E05D0A0F120029A4205D8834203D221
:101E3800814228BF002070470020704760040020BE
:101E480008B5094B98600D46144600F011FB204672
:101E580085F30988002163B681F31188BFF36F8F7A
:101E68000022002301F0CDFD60040020014910226A
:101E78000A60704710ED00E072B6404080F31188A8
:101E8800BFF36F8FBFF34F8F30BF62B6BFF36F8F53
:101E9800704700BF73B506460C4601B3134B144D8B
:101EA8001448ED1AED08AD0145F00105ADF80050F4
:101EB800D1E90123096801F028FEADF80050D4E902
:101EC8000423E1680C4801F020FEE1690B482A462A
:101ED80001F0EEFDA1690A482A4601F0E9FD214614
:101EE800304602B0BDE8704000F00CBF784C0008E6
:101EF800984C00080451000833510008625100084A
:101F08007151000830BFFFF7FDBF00BF0E4A08B58A
:101F18000E4B22F07F029A60BFF34F8FBFF36F8F93
:101F2800D3F8882022F47002C3F88820EFF31483D2
:101F380023F0040383F3148800F042FF01F060FBF0
:101F480000F06CFA00F060FF0000000800ED00E00F
:101F580001B5EFF30580A0F110004FEAC000044975
:101F6800014409C99847BDE80140024908470000F3
:101F7800884A000809240008102080F311880848BE
:101F88004FF40261401880F30988EFF314800221AE
:101F9800084380F31488BFF36F8FFFF7B7FF000083
:101FA80040110020EFF30880EFF3098101B5724674
:101FB80000F04EF901BD00BF2DE9F047354B364C16
:101FC800364DE41AE408A40144F00109074688469E
:101FD80033484946164601F05EFDAB6ADB0603D579
:101FE8003048494601F057FDAB6A180704D52E481A
:101FF80044F0010101F04FFD284DAB6A990723D445
:102008006FF01509254DAB6ADB0704D5274844F066
:10201800010101F040FDAB6A980604D5244844F05C
:10202800010101F038FD1D4B9A6AD10624D49A6A41
:10203800920721D40020194A936A43F0FF03936260
:1020480000233370BDE8F08744F0010A194851466F
:1020580001F021FDD5F83490AB6A1A06D0D51648A0
:102068005246494601F024FDB8F1000FCAD0AB6AC8
:1020780023F08003AB62C5E75B681B05DAD53946F8
:102088004846FFF7C7FE0028D4D080F3098802200D
:10209800D1E700BF784C0008984C000800ED00E03C
:1020A8009F510008B5510008E8510008295200085E
:1020B80048520008FB5100081352000870B5234B22
:1020C800234C244D2448E41AE408A40144F00106F2
:1020D800314601F0E0FCAB6A9B0103D51F4831464D
:1020E80001F0D9FCAB6ADD0104D51D4844F00101BB
:1020F80001F0D1FC174DAB6A180304D5194844F018
:10210800010101F0C8FCAB6A590304D5164844F034
:10211800010101F0C0FC0F4DAB6A9A0304D51348C6
:1021280044F0010101F0B7FCAB6ADB0304D51048A9
:1021380044F0010101F0AFFC064A936A6FEA0343D9
:102148006FEA13439362002070BD00BF784C00080B
:10215800984C000800ED00E0775200088F52000804
:10216800A2520008BC520008DA520008FF520008C8
:10217800195300082DE9F0412A4B2B4C2B4DE41A3A
:10218800E408A40144F0010807460E4628484146E1
:1021980001F081FCAB6AD90403D52648414601F019
:1021A8007AFCAB6A1A0504D5234844F0010101F012
:1021B80072FC1E4DAB6A9B0512D544F001081F48FE
:1021C800414601F068FCA96BAB6A180408D51C48A5
:1021D800424601F06DFC1FB1AB6A23F40043AB62C9
:1021E800124DAB6A590504D5164844F0010101F0B7
:1021F80052FCAB6ADA050DD5134844F0010101F031
:102208004AFC0A4A936A002043F47F439362307081
:10221800BDE8F081AB6A9B04F3D50C4844F001019A
:10222800EDE700BF784C0008984C000800ED00E08E
:10223800445300085A530008E85100086B5300083B
:102248008453000899530008B45300084852000802
:102258002DE9F0435B4B5F688BB00D46C7F308046C
:10226800002686F31188BFF36F8F02F07F43B3F126
:102278007F4F0DD102F00C03082B0BD15249534B61
:102288005348C91AC908890141F0010101F003FC4A
:10229800354603E0120701D40546012600238DF8D0
:1022A8000730E31E092B74D8DFE803F005626640A7
:1022B80073737373736A454B434FDFF8088145485E
:1022C800FF1AFF08BF0147F00107394601F0E3FB99
:1022D800D8F82C404FF0000914F002048DF807904C
:1022E80005D03D48394601F0D6FB002421E0D8F856
:1022F8002C305B001DD53948394601F0CCFB98F8E5
:10230800283033B10DF1070201212846FFF754FEAA
:102318000EE098F829302BB10DF107010120FFF7E5
:1023280029FF05E0B8F82A309BB213B1FFF7C6FEC3
:1023380004469DF80730C3B902AA05F120072868AA
:102348006968134603C30835BD421A46F7D1099B8D
:102358009EB3C3F3080222B96FEA53236FEA4323FB
:10236800099302A92046FFF795FD0BB0BDE8F0835D
:102378000DF107020021C8E70DF107010020CEE7A3
:102388001149124B1648C91AC908890141F00101BF
:10239800A9E70E4A0C4B134813499B1ADB0817F49C
:1023A800F87F4FEA831318BF014643F001030F4833
:1023B800A4F1100201F090FB97E723F4FF7323F0D8
:1023C8000103CDE700ED00E0984C0008784C0008C8
:1023D800CC530008F75300080E5400082F54000887
:1023E8004E5400088754000872540008A05400088E
:1023F800024A536943F010035361704700ED00E04F
:10240800044B9968D869884203D003494FF0805239
:102418000A6070476004002004ED00E004480023CF
:102428001021C21801333E2B82F80013F9D17047EE
:1024380000E100E0064B9B68834207D1EFF3058378
:1024480023B1044A536843F08053536001F086B8BF
:102458006004002000ED00E0024B034A034801211C
:1024680000F08CB80080002000000020CC4D00084F
:10247800426E054B203A1A60044A2021C3E9011232
:102488001846012100F084B80004002000000B1554
:10249800F8B52A4F0E460021B14214DA4468002CE0
:1024A80048D0C3B104F1FF3C14EA0C0F0DD0244A04
:1024B800244B2548D21AD208920142F0010201F0B9
:1024C800F7FA6FF015021046F8BD1F2CEFD9056812
:1024D8001CEA050FEBD1202CD5B2D0F808C0026851
:1024E80016D9B4F1004F15D8013CB4FA84F4C4F1FC
:1024F8001F046400072D4CEA04040DD9104A114B3F
:102508001248D21AD208920142F001022946D6E7AF
:102518000824EFE73E24EDE722F01F022A4342F0A9
:10252800100244F00104C7F89850C7F89C20C7F877
:10253800A0406A1C01310C30AEE700BF00ED00E09E
:10254800904C0008784C0008B7540008DA5400088A
:10255800044B0522C3F89420BFF34F8FBFF36F8F4E
:10256800704700BF00ED00E0BFF35F8F024B002211
:10257800C3F89420704700BF00ED00E010B5034C8D
:1025880001232278FFF784FF207010BD8F040020FC
:1025980008B5094A00231278FFF77AFF10F1160FE1
:1025A80003D0064B0022072800DD08BDC3F89800B9
:1025B800C3F8A0200130F6E78F04002000ED00E00A
:1025C80014490868082810B521D8FFF7CDFF124C28
:1025D80049680022904201F10C0105D10F4B187097
:1025E800FFF7B6FF002010BDC4F8982051F80C3C46
:1025F80023F01F03134343F01003C4F89C3051F831
:10260800043C43F00103C4F8A0300132E2E74FF084
:10261800FF30E8E7D84D000800ED00E08F04002007
:10262800014B1860704700BF1C000020F8B50C462D
:102638001146B1F5005F466802691F4625D104F0CE
:10264800030304339A000F23934043EA940303F0EF
:10265800030202322F491B0C51F8221093FAA3F2FD
:10266800B2FA82F202F00F02D340B2680B409A42EB
:1026780009D12046FFF724F92046FFF777F9002112
:102688002046FFF72DF9002537E0B1F5804F3AD005
:1026980021492046FFF758F90546B8BB04F0030363
:1026A80004339A000F23934043EA940303F0030290
:1026B800920002F1804202F58032B0689668190CE7
:1026C80091FAA1F1B1FA81F101F00F0126EA134361
:1026D80000FA01F10B43B7F5802F93600FD0B7F5DF
:1026E800C02F0ED0B7F5003F14BF002102212046AD
:1026F800FFF7F6F82046FFF7D3F82846F8BD012182
:10270800F5E70321F3E76FF08505F6E76FF00F05AE
:10271800F3E700BF00000140E943000870B54568D1
:102728000B4C0C3551B1204601F0C8FF68B1A368C5
:102738001B6829462046BDE870401847204601F02E
:10274800BDFF10B1A3685B68F3E76FF0120070BDBE
:1027580034000020F7B5036947685C6857F8086BD0
:102768000D46204601F0AAFF58B91A491A4B1B48D2
:10277800C91AC908890141F0010101F08CF903B0B7
:10278800F0BDA368DB68002BEFD001AA39462046CC
:1027980098470028E9DB124B019C9E420FD1002D7F
:1027A800EDD00023194668084FF480772A46E4FBE9
:1027B8000701FDF7BDFCC0F31300F060DFE73368E5
:1027C80004EB550423F40043B4FBF5F4A4B23360DE
:1027D800F460D4E7A04C0008784C0008275500089E
:1027E800008000402DE9F84346680769DFF8D0808B
:1027F800B146054659F8084BC7F80480404601F031
:102808005DFF002858D0D8F8083040461B68494674
:102818009847804600284FD16B68D6E906011A68A8
:10282800FFF7BEF8002849DB2368716923F001032C
:1028380023602368022943F00C0323600FD0012989
:1028480035D051B11F4B204A2048D21AD2089201E4
:1028580042F0020201F02CF94146084603E04FF429
:1028680080514FF48060236823F0805323F4B053E1
:10287800014319432160636823F440536360337C48
:102888002BB16B681A68936843F440739360396896
:102898002846FFF75FFF236843F001032360E369DD
:1028A8009A02FCD5E3695B02FCD5002006E04FF4F0
:1028B80080514FF4C060D6E76FF00400BDE8F8839C
:1028C80034000020784C0008A04C00084A55000845
:1028D8002DE9F047436806691C680B79012B0D4602
:1028E8001BD0022B0CBF4FF48061002195F8059096
:1028F800B9F1020F9CBF444A32F819E0AA7988BF9F
:102908004FF4005E022A0BD0042A77D0002B14BFA4
:102918004FF4805C4FF0000C08E04FF4C061E5E72D
:10292800002B0CBF4FF0805C4FF0000C95F807802F
:10293800A3F1030AB8F1010F14BF00274FF4407741
:10294800BAF1010F5DD90BB1042A5AD02F4B9C4222
:1029580002D119F0FD0F54D0012A52D9042A50D0BF
:10296800B8F1000F0DD02A4B9C4207D0A3F5744351
:102978009C4203D003F570539C4242D1B8F1010F39
:102988003FD1236823F001032360236803F4C06365
:1029980099421FBF236823F4C0630B432360636815
:1029A80003F440539E451FBF616821F4405141EA3A
:1029B8000E0161602368296803F010239C451FBF3E
:1029C800226822F0102242EA0C022260A36803F473
:1029D80040739F421FBFA36823F440733B43A36027
:1029E8003368994203D0FFF7B5FE2B68336023683C
:1029F80043F0010323600020BDE8F0874FF4805CBA
:102A080094E76FF08500F7E71C4F0008008000404E
:102A180000380140024AD36843F40043D36070474A
:102A2800000400581F4A034607CA84B00DF1100C71
:102A38000CE90700184633B31B4B1B6803F4C0634B
:102A4800B3F5007F22D1194B98421CD8184B9842F5
:102A580024D9184B984294BF01200220164904AB90
:102A680003EB80000B6850F80C2C23F0070313438A
:102A78000B600B6803F007039A4211D00B6803F050
:102A880007039A420CD0002004B070470B4B9842C1
:102A9800F9D80B4B984201D90A4BDBE70020DDE758
:102AA8000120F1E7144D000800040058006CDC0216
:102AB80080A8120100512502004000580024F400AB
:102AC800808D5B00001BB7002DE9F8438B68DFF8A9
:102AD800E880DFF8E890C3F30313074658F823505B
:102AE800B0FBF5F54FF0B0430C469A68D3F80831BF
:102AF800C2F3031203F00F0358F82260D9F800203C
:102B080058F823305643B6FBF3F6B54247D84FF092
:102B1800B0431A6842F080721A60DA6842F0805254
:102B2800DA601A689201FCD59968226821F0F001F0
:102B38000A439A60D3F80811626821F0F0010A4349
:102B4800C3F80821D3F80821A16822F00F0242EA4D
:102B58001112C3F808219A6842F003029A604FF0F4
:102B6800B0439A6802F00C020C2AFAD19968E2681C
:102B780021F4E0610A439A609968226921F460515E
:102B88000A43B5429A6011D32368C3F3031358F874
:102B98002300B7FBF0F70120C9F8007004E02846CD
:102BA800FFF740FF0128B2D0BDE8F8832846FFF7B9
:102BB80039FF0128F8D1E7E7B04E000828000020C7
:102BC80070B5044601F071FD01280D462ED1184854
:102BD800214601F05BFD6B68164AC3F3031352F8F4
:102BE8002330154AB0FBF3F393421FD84FF0B0439C
:102BF8001A68910306D41A6842F480321A601A6877
:102C08009203FCD54FF0B0420C4BD6686168334054
:102C180043EA012321680B43A1680B4343F00303F4
:102C28002946D360BDE87040FFF74EBF002070BD55
:102C38000048E801B04E0008006CDC028C80FF1FE1
:102C48000E4B70B553F82040013053F82060A6426F
:102C580000D870BDD4E900352846984765B1EB68BF
:102C680030B10028B8BF4042FF28A8BFFF20187025
:102C78005A7842F001025A700834E8E7F04E00082A
:102C880070B5054610B90024204670BD0378002BA6
:102C9800F9D00E4C0E4EB44208D10C4CB442F2D0CE
:102CA800204601F00BFD50B91834F7E7204601F033
:102CB80005FD10B12368AB42E6D01834EBE7216874
:102CC8002846FDF7B7FB0028EED1DDE734000020E9
:102CD8000C01002010B50446FEF7B6FA064B07496A
:102CE8000748C91AC908890141F0010100F0D3FE5B
:102CF800204601F0ECFC00BF784C0008984C000816
:102D0800875500082DE9F34106460F464FF010039A
:102D1800EFF3118883F31188BFF36F8F00F018FC6D
:102D28001F4C204BE41A042E4FEAD40496BF1E4AC7
:102D38001E4A52F82620A40144F001030546ADF8C6
:102D480000301B480023314600F0DFFE47B1FB6925
:102D5800C3F3080323B1174844F0010100F09BFEB8
:102D680044F001042DB1284601F001FD08B10378B3
:102D780003B91148FEF7EEF82346024629460F48E4
:102D880000F0AAFE39463046FFF7A4FF88F3118801
:102D9800BFF36F8F284602B0BDE8F041FFF74ABB8A
:102DA800984C0008784C0008084F00089655000811
:102DB800AC550008D4550008A4550008F55500087E
:102DC8000248034A0021121A01F0FABD200100202E
:102DD8009404002008B50A4B012202201A70FFF75C
:102DE8002FFF00F0D3FD0320FFF72AFF00F044F97E
:102DF800FDF732FB034A137B23F00103137308BD6D
:102E080090040020580200202DE98048A7B0FDF763
:102E1800DFFFDFF8E09089F30888374D374E6B699C
:102E2800DFF8DCA0374F43F4007300246B61F02314
:102E380085F82230EC772C766C76AC766B6A43F4A6
:102E4800E0236B62FFF7D4FAFFF710F84FF0FF3377
:102E5800AB62EB62FFF7B4FB2B4DFFF7FDFA40F2D4
:102E68000113ADF8243006ABAB60CDE91F4401F087
:102E780024FC2046FFF7E4FE0120FFF7E1FE00F006
:102E8800BFFA224BEE614FF0010B0593072320494F
:102E980000944FF40062CDE9033BCDE90144534669
:102EA800304600F08BF8737B804623F004033046ED
:102EB800737301F0D2FC0F23CDE902431549164B79
:102EC8004FF4A072CDE904B4CDE90054384600F0BF
:102ED80075F87B7BEF6023F004037B7305F1140323
:102EE800C5E905332C74C5F804905246414630466E
:102EF800FEF7A6FF6019002000ED00E05802002050
:102F0800DD2D0008D8010020600400205756000875
:102F1800C0070020E00F00207B47000870B50E4B6B
:102F28000E4CA34201D3002070BDD3E9030141EA4E
:102F3800000212F003020BD19D685A61AA4201D126
:102F48001C33EEE75E690E60013259610144F5E712
:102F58006FF01500E8E700BF0C0100200C0100200D
:102F680037B50C464FF01005EFF3118185F3118842
:102F7800BFF36F8F45695DB125602B684361836935
:102F880001338361002081F31188BFF36F8F11E053
:102F980052EA030C03D125606FF00B00F3E7CDE98B
:102FA80000230246083000F079F918B9024B9B68F3
:102FB8005B69236003B030BD600400202DE9FF4148
:102FC8000E9E0673042646730D9E867300F15805FF
:102FD8000F46D61DC0E916550C9A002526F007069F
:102FE8002037C0E90655C0E919768560C573C566FE
:102FF80006F1200802920B9A019288440A9A0092DC
:1030080042460446FEF7EAFE044B65659B6803B139
:103018001B6F2367404604B0BDE8F08160040020C0
:10302800F0B587B000270597109F04970F9F039767
:103038000E9F0297DDE912650D9F01970C9F00977F
:103048000446FFF7BBFFB5F1FF3F08BFB6F1FF3FEE
:1030580005D055EA060305D1204600F0B3F920460D
:1030680007B0F0BD034932462B4604F1180000F0C2
:1030780025FBF4E783480008F0B5224C224D87B0C1
:103088002646AE4204F130040BD300F09BF81D4CE9
:103098001E4F0A26AC4220D307B0BDE8F04000F02E
:1030A8003FB954F8043C059354F8103C049354F881
:1030B800143C039354F8183C029354F81C3C0193B5
:1030C80054F8203C009354E90C0154E90A23FFF713
:1030D80075FF54F8303C5E65D2E7626A531C09D02C
:1030E80022EAE27282FB062352EA0301206803D136
:1030F80000F068F93034CDE73946183000F0DEFAD0
:10310800F8E700BF0C0100200C01002083480008EC
:1031180038B504464FF01003EFF3118583F3118897
:10312800BFF36F8F01F0E0FB48B10022826701F026
:1031380094FB29460548BDE8384000F031B8D4E989
:1031480002329A4218BF0133A360F2E791040020CB
:1031580013B54FF01004EFF3118184F31188BFF316
:103168006F8F846844B1013C846081F31188BFF398
:103178006F8F002002B010BD52EA030406D181F31C
:103188001188BFF36F8F6FF00F00F3E7CDE90023CD
:103198000246024800F082F8ECE700BF91040020E4
:1031A80049B9EFF3058030B9054BDA699B689A4253
:1031B80001D0FEF797BD81F31188BFF36F8F704779
:1031C800600400204FF01003EFF3118183F311889E
:1031D800BFF36F8F044B9A68D37B013BD37381F3A2
:1031E8001188BFF36F8F70476004002008B502464E
:1031F800094801F002FB094B00B9D8684AB99A6836
:10320800517BC90605D1816919B9D1897F2988BF40
:103218001046D86108BD00BF80040020600400206B
:1032280008B590F90D20437B002A014604DA03F023
:103238007F03437301F0A9FA044B9868431A584274
:103248005841BDE80840FFF7D1BF00BF6004002027
:103258002DE9F041064615461C464FF01003EFF3E2
:10326800118783F31188BFF36F8F01F0CCFA87F3CE
:103278001188BFF36F8FB4F1FF3F08BFB5F1FF3F6F
:1032880008D02A46234606F118000349BDE8F04154
:1032980000F014BABDE8F0818348000810B506486C
:1032A8000C4680681146DDE90223FFF7D1FF20466E
:1032B800BDE81040FEF716BD6004002070B5044656
:1032C800183001F029FB4FF01003EFF3118683F358
:1032D8001188BFF36F8F94F90D20637B002A05DAFC
:1032E80003F07F036373204601F04FFA0B4D637BB5
:1032F800A86843F010036373031B58425841FFF753
:1033080075FF86F31188BFF36F8FAB68A34203D1B3
:10331800BDE8704001F067BA70BD00BF60040020CE
:1033280010B54FF01003EFF3118483F31188BFF346
:103338006F8F084B9A68D37B0133D3730020FFF754
:1033480055FF84F31188BFF36F8FBDE8104001F07B
:103358004ABA00BF6004002070B490F90D20437B86
:10336800002A2ADBDA0628D1826932BB144A63F0C4
:103378007F034373D2E9083402F12005AB4217D02A
:10338800B3B190F90E6093F90E108E420BD0891BE1
:10339800002908DD5A68C0E900321060586070BC26
:1033A8000020FFF723BFA34202D01B68002BEAD1FD
:1033B800C0E9005420605062F1E770BC704700BF5C
:1033C8006004002010B54FF01002EFF3118482F36F
:1033D8001188BFF36F8F427B510704D484F311889F
:1033E800BFF36F8F10BD22F004024273FFF7B4FFE2
:1033F80021460248BDE81040FFF7D2BE91040020E4
:10340800024B03F12002C3E9082270476004002040
:103418002549F8B58A68254B9A423BD04FF01003EE
:10342800EFF3118583F31188BFF36F8F8868437BAF
:1034380003F07F03437301F0A8F98B685A7B0846B1
:1034480062F07F025A7350F8202F82421CD0DAB102
:103458004F6A93F90E6092F90E40A6420FD0A41B52
:10346800002C0CDD5168C3E900210B60536001207A
:10347800FFF7BCFE2846BDE8F840FEF733BCBA4269
:1034880002D01268002AE6D14A6AC3E90002136032
:103498004B62ECE74FF01003EFF3118083F31188D0
:1034A800BFF36F8FE7E700BF60040020D80100205A
:1034B80050EA01032DE9F04105460E4604D1FFF715
:1034C800A7FF0020BDE8F08101F03CFA04464FF068
:1034D8001003EFF3118883F31188BFF36F8F0E4F3A
:1034E800B868FFF79DFEB8680C492A46334618307D
:1034F80000F0E4F8BA68537B43F010035373404676
:10350800FEF7F0FB01F01EFA6219101A63EB0303D1
:10351800002BB8BF0020D5E76004002083480008CE
:10352800B1F1FF3F08BFB0F1FF3F08B506D1074B27
:103538009868FFF7C3FE4FF0FF3008BDFFF7B8FFEC
:103548000A220023C117FCF7F3FDF6E76004002008
:10355800014B9868704700BF600400202DE9F041D6
:1035680004464FF01003EFF3118683F31188BFF37D
:103578006F8F437B1A0705D586F31188BFF36F8FCA
:10358800BDE8F08123F0200242F00801D20920D1E1
:103598004173A36813B1204601F0FFF804F1180045
:1035A80001F0BAF904F158074FF00008A56DBD42C3
:1035B80000D0B5B90120FFF719FE104B9B68A34254
:1035C800DAD1EFF30583002BD6D13046FEF78AFB1C
:1035D800D2E703F05F0343F00803437301F0D5F823
:1035E800D7E7284601F0D9F805F1180001F094F959
:1035F800C5F878802846FFF7AFFED7E760040020BB
:1036080008B50648064A0749121A01F0CBF9BDE881
:103618000840054A0549064801F0C4B900000020E1
:103628001C010020A857000800000000A857000847
:1036380000000020034B1B680BB9FEF7A7BA002057
:10364800704700BF880400200E4B10B51C689C42D0
:1036580008BF0024FFF7EEFF03466CB1D4E904026B
:10366800C01A62EBE373012873F1000207DBB0F1C3
:10367800004F73F1000301DB6FF0004010BD002024
:10368800FCE700BF2C00002030B5036868B10A4A87
:103698005268904209D043B1D3E90421D0E90445E6
:1036A800121941EB0501C3E90421426813605A600D
:1036B8000023C0E9003330BD2C000020B3F1FF3FE8
:1036C80008BFB2F1FF3F2DE9F84F05460E46914677
:1036D800984661D0571C6FF0010A43F100044FF07F
:1036E800FF3BBAEB07036BEB0403002B0FDBFFF781
:1036F800A1FF2F4BD3E90024BAEB02026BEB0404C1
:10370800B2EB090264EB0804171A64EBE074AE60CC
:103718004FF01003EFF3118683F31188BFF36F8F17
:10372800FFF788FF3A46012F224F74F10003B8BF14
:1037380001223B68B8BF0024121844EBE074BB4276
:10374800C5E9042402D0D7F804C02BB97B68C5E9C1
:1037580000731D607D6011E0D3E90414D5E90420ED
:103768008A4270EB040E19DA8A1A64EB0000C3E986
:1037780004205A68C5E9003215605D603B68BB42A9
:1037880006D09D4204D1FFF75FFF0021FEF79AF9AA
:1037980086F31188BFF36F8FBDE8F88F521A60EB7C
:1037A80004006345C5E90420D0D01B68CDE700BFFD
:1037B800D80200202C0000202DE9F8434FF0100318
:1037C800EFF3118483F31188BFF36F8F234EDFF873
:1037D8009080244D3060D8F8000032684045D5E923
:1037E800001E4FEAE2770BD050B1D0E9043C9A4270
:1037F80077EB0C0916DA9B1A6CEB070CC0E9043C52
:1038080052184EEB0707C5E9002700253560FFF77A
:103818001BFF2946FEF756F984F31188BFF36F8F13
:10382800BDE8F88359184EEBE377D31A33600022CA
:103838000023C0E90423C5E90017FFF725FF84F337
:103848001188BFF36F8F836898474FF01003EFF329
:10385800118483F31188BFF36F8FBCE788040020BD
:103868002C000020D802002010B54FF01003EFF311
:10387800118483F31188BFF36F8FFEF787F9054A28
:10388800D2E90031C01841F1000184F31188BFF377
:103898006F8F10BDD802002038B5D0E90A32013345
:1038A80042F10002022B72F10003044604D3D0E96E
:1038B8000A230D49FFF702FF236B01332363236AB1
:1038C8000BB12046984754F8185FA5420AD04DB16D
:1038D800284600F06CFF0023AB672846BDE8384057
:1038E80000F0BBBF38BD00BFA13800082DE9F0418A
:1038F800114605461846B0F1FF3F08BFB1F1FF3F3A
:10390800DDE90623884607463CD0B3F1FF3F08BFF0
:10391800B2F1FF3F14461E4613D01A4311D06FF080
:103928000102121B4FF0FF3262EB0302002A08DA91
:10393800013C63F10006012C76F10003BCBF0124B1
:1039480000266FF001035B1A4FF0FF3363EB0003AF
:10395800002B08DA4A1E60F10007002F9046BCBF12
:103968004FF000084746284600F0D6FF00232B6397
:10397800C5E90A4642463B4628460349BDE8F041A8
:10398800FFF79CBEBDE8F081A1380008024A034950
:10399800034800F01CB800BFEF5000085F5600084D
:1039A800805600080020704730B58A680C68551C9E
:1039B80014B14B68934201DC8D6030BD013B9342EA
:1039C80008BF00228D600CBFE254A054F5E70FB485
:1039D80007B504A951F8040B0191FCF76FFD03B07A
:1039E8005DF804EB04B070470CB407B504AB53F8AA
:1039F800042B0193FCF770FD03B05DF804EB02B0F3
:103A08007047044608B5084611461A46A047FFF70E
:103A18009FFDFEF70FFD2DE9F04107468846154644
:103A28001E461446B442A4EB050002D33EB92378DF
:103A38002BB114F8010B4146B8470028F2DABDE86B
:103A4800F08170470023C0E900337047036823B949
:103A58000160002341600B60704743681960F8E714
:103A6800006870470346006808B102681A6070472A
:103A780008B5FDF749FC18B1012343600023038111
:103A880008BD08B500F062FF0A220023FCF750FBCE
:103A980008BD0020704738B505460C46FFF7E8FF1B
:103AA80028B105612146BDE83840FDF76BBB38BD3C
:103AB80070B506460D461446FFF7DAFF58B1427A4C
:103AC8000661012161F30712427245612146BDE892
:103AD8007040FDF757BB70BD2DE9F04180460F4699
:103AE80016461D46FFF7C4FF68B1437AC0F8108038
:103AF800022262F307134372C0E905762946BDE83E
:103B0800F041FDF73FBBBDE8F0812DE9F843804661
:103B1800BDF820900F4616461D46FFF7A9FF70B165
:103B2800437AC0F81080032262F307134372C0E996
:103B38000576C5614946BDE8F843FDF723BBBDE8F6
:103B4800F8832DE9F8431C4603899DF820700E463A
:103B58001146C3F38D02A24203D800230B60BDE8CF
:103B6800F8830B682344934284BF131B0B600C2A11
:103B7800D1F800902AD9072CD0F814802DD8183005
:103B880008224A4528BF4A461546204417B33146FD
:103B980000F008FFA9EB05092E44B9F1000FDED0AB
:103BA800B8F1000FDBD0C4F11C054D4528BF4D46C8
:103BB800201D40442A46BFB1314600F0F3FEA9EB70
:103BC8000509D8F800802E440024E6E714304FF0A9
:103BD8000008D6E701463046DAE7083C1B2CDCD95A
:103BE800D8F800801C3CF9E701463046E5E7043088
:103BF800BFF35B8F50E8003F013340E80032002AF2
:103C0800F8D1BFF35B8F7047407A00097047437A59
:103C1800B1EB131F4FEA131216D2032A03D800EB95
:103C2800810040697047012903D800EB8100806951
:103C3800704743690239062903D803EB81014868B4
:103C480070471B680739F6E7002070470346021DD6
:103C5800BFF35B8F52E8001F013942E8001CBCF13A
:103C6800000FF7D1BFF35B8F5B680BB9FDF760BB43
:103C780070470069704713B500240094FFF761FF8F
:103C880002B010BDF8B506460D4614461F4621463B
:103C980028463A46B047241A0544F8D1F8BD2DE91C
:103CA800F0478EB00EAF80460D46FFF7E2FF06469E
:103CB8004046FFF7A9FF8300073323F00703ADEB66
:103CC800030D82460EAC4FF00009D14516D140468F
:103CD800FFF79AFF0F281ED8DFE810F01900200020
:103CE80026002D00360041004E005D006E00810068
:103CF8009600AD00C600E100FE001D0149464046A1
:103D0800FFF785FF44F8290009F10109DDE731468D
:103D18002846FDF74BFBBD46BDE8F08722683146D3
:103D28002846FDF743FBF6E7D4E900233146284649
:103D3800FDF73CFBEFE7A3680093D4E90023314685
:103D48002846FDF733FBE6E7E3680193A368009391
:103D5800D4E9002331462846FDF728FBDBE7236931
:103D68000293E3680193A3680093D4E900233146E2
:103D78002846FDF71BFBCEE763690393236902938B
:103D8800E3680193A3680093D4E9002331462846E9
:103D9800FDF70CFBBFE7A3690493636903932369E9
:103DA8000293E3680193A3680093D4E900233146A2
:103DB8002846FDF7FBFAAEE7E3690593A369049388
:103DC8006369039323690293E3680193A3680093EB
:103DD800D4E9002331462846FDF7E8FA9BE7236A31
:103DE8000693E3690593A3690493636903932369BD
:103DF8000293E3680193A3680093D4E90023314652
:103E08002846FDF7D3FA86E7636A0793236A069381
:103E1800E3690593A3690493636903932369029390
:103E2800E3680193A3680093D4E900233146284648
:103E3800FDF7BCFA6FE7A36A0893636A0793236ADE
:103E48000693E3690593A36904936369039323695C
:103E58000293E3680193A3680093D4E900233146F1
:103E68002846FDF7A3FA56E7E36A0993A36A08937D
:103E7800636A0793236A0693E3690593A369049326
:103E88006369039323690293E3680193A36800932A
:103E9800D4E9002331462846FDF788FA3BE7236B2F
:103EA8000A93E36A0993A36A0893636A0793236AE8
:103EB8000693E3690593A3690493636903932369EC
:103EC8000293E3680193A3680093D4E90023314681
:103ED8002846FDF76BFA1EE7636B0B93236B0A9377
:103EE800E36A0993A36A0893636A0793236A0693AC
:103EF800E3690593A36904936369039323690293B0
:103F0800E3680193A3680093D4E900233146284667
:103F1800FDF74CFAFFE6A36B0C93636B0B93236BD3
:103F28000A93E36A0993A36A0893636A0793236A67
:103F38000693E3690593A36904936369039323696B
:103F48000293E3680193A3680093D4E90023314600
:103F58002846FDF72BFADEE64268816810B504466C
:103F6800D2E900230068FFF78DFE636800221A601B
:103F780010BD38B54B681A68CB689A4205460C469E
:103F880002D10846FFF7E8FF6368BFF35B8F53E889
:103F9800002F511C43E800100028F8D1BFF35B8FB5
:103FA800A3689D54002038BD002208B5114606209C
:103FB800FDF7FCFE002211460720FDF7F7FE002260
:103FC80011460820FDF7F2FE002211460920FDF7F0
:103FD800EDFE002211460A20FDF7E8FE00221146F8
:103FE8001620FDF7E3FE002211462920FDF7DEFE2C
:103FF800002008BD026910210A20FDF731BC0269C2
:104008000A210520FDF72CBC026905210420FDF7D3
:1040180027BC026904210320FDF722BC02690321A1
:104028000220FDF71DBC026902210120FDF718BC22
:10403800026901210020FDF713BC0B6886B0062B2E
:1040480049D8DFE803F00411273D32481C004FF03F
:10405800B0424B68916C19439164926C1340009381
:10406800009B002006B070474FF0B0424B68D16CFF
:104078001943D164D26C13400193019BF1E74FF0CF
:10408800B0424B68116D19431165126D13400293CC
:10409800029BE6E74FF0B0424B68916D194391657A
:1040A800926D13400393039BDBE74FF0B0424B68DC
:1040B800D16D1943D165D26D13400493049BD0E7A9
:1040C8004FF0B0424B68116E19431166126E1340DF
:1040D8000593059BC5E76FF08500C3E710B588B069
:1040E8000023CDE90333CDE90533079300F081F8C8
:1040F800684600F076F84FF0B0431A68510506D4C8
:104108001A6842F480721A601A685205FCD54FF09A
:10411800B044A36823F0030343F00103A360A3683A
:1041280023F0F003A360A36803F00C03042BFAD177
:10413800236823F080732360236843F4001323600B
:1041480003A96846FEF73CFD236823F480732360C7
:104158002368002023F00103236008B010BD0B681A
:1041680082B0062B3AD8DFE803F0040E2131293952
:1041780016004FF0B0424968936C23EA0103936438
:10418800002002B070474FF0B0424968D36C23EA70
:104198000103D364F4E74FF0B0424B68116D194343
:1041A8001165126D13400193019BE9E74FF0B0428E
:1041B8004968936D23EA01039365E1E74FF0B04244
:1041C8004968D36D23EA0103D365D9E74FF0B042BC
:1041D8004968136E23EA01031366D1E76FF085007F
:1041E800CFE706231022C0E900234FF00053836075
:1041F800704770472DE9F74FD0F80490D0F8108039
:10420800D9F804305A68DD69002425EA0205064613
:104218000194ADB24FF0010AD8F800309C4202D3A5
:1042280003B0BDE8F08F0AFA04F72F4216D0D9F888
:104238000420D8F804B053693B435361BBF1000F25
:1042480005D0D8F8081001AB22463046D847D9F82F
:1042580004309F605A6822EA07075F600134DBE791
:1042680043685A685368D168DB4301EA134103691C
:1042780070B51D6801260023AB4200D170BD06FA57
:1042880003F40C421EBF506840EA044050600133FA
:10429800F2E743685869704703691868013870473E
:1042A8000369C3E901127047436802695B681068D3
:1042B8001A6830B5A1B142F480321A601A6842F027
:1042C80001021A6001240022824201D1002030BD7F
:1042D800596804FA02F521EA050159600132F3E749
:1042E80022F480321A601A6822F001021A6001244E
:1042F8008142EBD05D6904FA01F22A435A61013127
:10430800F6E708B5002211462D20FDF74FFD0022E3
:1043180011462E20FDF74AFD2D20FDF737FDBDE89B
:1043280008402E20FDF732BD00210120FDF7B2BD67
:1043380001460068FDF7AEBD08B5FDF7E3FDBDE831
:104348000840FEF75DB84FF0FF30704743685B6880
:104358001B690B600020704743685B6858694240DE
:104368000A4042405A610020704743685B68002059
:104378009961704743685B68002099627047436899
:104388005A6853694B405361002070470369986825
:1043980030B558B10024814212D10868DD6854B99B
:1043A8008D42986000D1D860002008606AB900206A
:1043B80030BD2846EFE78D42206008BFDC60F3E798
:1043C80005680446002DF4D13AB1D8689A680A60A5
:1043D80099600028EBD1D960EAE76FF01500E7E7AC
:1043E8000B46896870B569B101255E680C6885401F
:1043F8008A682A4002D04B683046984714B1214653
:104408002468F5E770BD4068F0B544680120676826
:104418008840C2F3801627EA00078E403E43666054
:1044280090FAA0F7B7FA87F7D4F808C04FF0030E50
:104438007F000EFA07F72CEA070C90FAA0F7B7FAF4
:1044480087F7C2F3C1167F00BE4046EA0C06A66095
:1044580090FAA0F6B6FA86F6E76876000EFA06F63F
:1044680027EA060790FAA0F6B6FA86F602F03005B3
:104478007600C2F34122B2403A43202DE26015D1C2
:1044880007292CDC90FAA0F2216A32B3B2FA82F240
:1044980092000F2606FA02F221EA020190FAA0F22F
:1044A800B2FA82F2920093400B43236290FAA0F38F
:1044B800B3FA83F3226890FAA0F003215B00B0FA04
:1044C80080F02D0901FA03F3400022EA030305FAFC
:1044D80000F0184320600020F0BD2A46D8E7020A01
:1044E800666A92FAA2F181B1B1FA81F189000F27C7
:1044F80092FAA2F2B2FA82F207FA01F1920026EADF
:10450800010193400B436362D0E72946EEE7134667
:104518009A0510B519D59C0710D55A072ED55022E3
:10452800DC060DD542F400721C051CD45B0515D5BC
:104538004468012364688B40A3620FE01022EFE710
:104548009C06F1D542F48062EEE7DC0511D5DA0667
:1045580011D413F0200218BF4FF480620023FFF734
:1045680052FF002010BD4468012364688B40A3619A
:10457800F4E73022F2E74FF40072EFE76FF08500BE
:10458800F0E7026901215060FEF7C8B843681B686C
:10459800DA691206FCD540221A62996270474368AC
:1045A8001B68D869DA69D207DA69C0F3C00048BF66
:1045B80040F00200910748BF40F00400C20744BF22
:1045C80008221A62810744BF01221A62420744BFC7
:1045D80002221A6204221A62704743681B68DA6969
:1045E800100744BF08221A62DA69920643BF5B6A61
:1045F8000B7000204FF0FF30704703691B680B6099
:1046080043681A68136803F4C063B3F5806F2DD04C
:10461800A3F5C060434243410B71536803F4405310
:10462800B3F5805F24D0B3F5405F23D0002B14BFCF
:10463800032301234B711068136800F01020B0F5B4
:10464800805F03F4C06317D0B0F1805F19D1002BED
:104658000CBF022301238B71936803F44073A3F505
:10466800407253425341CB71002070470223D3E775
:104678000023DFE70223DDE7002B14BF0323042315
:10468800E9E7002B14BF02230323E4E70A684B6819
:10469800120903F07F030132B0FBF2F058438B6834
:1046A8005B0F0133B0FBF3F070474FF0B04318686D
:1046B80080F00070C0F3406070477047C368188886
:1046C800C0F30800A0F580735842584170474FF076
:1046D8001002EFF3118382F31188BFF36F8FFEE7A7
:1046E80030B50024846141EA020414F00304C0E9EF
:1046F800023201610CD14461A34203D1C0E9000038
:10470800002030BD45690D60013441611144F3E773
:104718006FF01500F5E7F8B504460D464FF01003A5
:10472800EFF3118683F31188BFF36F8F476977B969
:1047380000F0DAF858B12A684261876700F08DF80E
:10474800314604F10800BDE8F840FEF729BD2B68A2
:1047580062691A602B686361A369013BA36186F3F0
:104768001188BFF36F8FF8BD6FF0570070470020B6
:10477800704708B54FF01002EFF3118382F31188E8
:10478800BFF36F8FFDF778FBF4E7D0E900321360D1
:104798005A600023C0E90033704708B5FFF7F5FFFA
:1047A800437B23F0020343730023836008BD08B5ED
:1047B8004FF01003EFF3118183F31188BFF36F8F6C
:1047C800FFF7EBFF81F31188BFF36F8F08BD034636
:1047D80020B9EFF305820AB9FDF784BA83F311888B
:1047E800BFF36F8F70474FF01003EFF3118083F31F
:1047F8001188BFF36F8FFFF7EABF03460068834253
:1048080008BF0020704738B504460D46FEF708FD7E
:10481800637B43F00203637395B12B68A5609D42E7
:1048280015D0A3B194F90E1093F90E20914208D037
:10483800521A002A05DD5A68C4E9003214605C6027
:1048480038BD6A68934202D01B68002BECD16B68B4
:10485800C4E900531C606C60F2E710B54FF0100318
:10486800EFF3118483F31188BFF36F8FFEF774FDA4
:1048780084F31188BFF36F8F10BD10B501464FF058
:104888001003EFF3118483F31188BFF36F8F10F8CF
:104898000B3C13F0280F0DD151F8103C18380BB110
:1048A800FFF77BFF11F80B3C23F0140301F80B3CD6
:1048B800FEF752FD84F31188BFF36F8F10BD10B55A
:1048C8004FF01003EFF3118483F31188BFF36F8F58
:1048D800FFF793FF014608B1FFF75FFF84F31188E4
:1048E800BFF36F8F084610BD38B54FF01003EFF3D4
:1048F800118583F31188BFF36F8FFFF77EFF04469E
:1049080020B1FFF74AFF183000F006F885F3118848
:10491800BFF36F8F204638BD10B54FF01002EFF38C
:10492800118482F31188BFF36F8F03683BB1FEF7E0
:10493800ABFE002084F31188BFF36F8F10BD6FF0BA
:104948001500F7E708B5FEF78FFF08BDFEF78CBF27
:104958000023C0E9081200F11802C0E90622C0E9E4
:10496800003303634363704710B50446FFF7D4FF71
:10497800B0B9636A0BB12046984704F11800FFF7F5
:104988009EFF68B1FFF769FF4FF01003EFF3118046
:1049980083F31188BFF36F8FBDE81040FFF717BF8F
:1049A80010BD70470A44914200F1FF3300D17047AF
:1049B80010B511F8014B03F8014F9142F9D110BD20
:1049C80002440346934200D1704703F8011BF9E7FC
:1049D80010B50139034632B111F8014F03F8014B04
:1049E800013A002CF7D11A440021934200D110BD9E
:1049F80003F8011BF9E710B5024601448A42134641
:0E4A080003D01C780132002CF8D1181A10BD12
:024A1600FFFFA0
:084A180050B7FF7F0100000010
:104A2000FD0C000800000000E540000834000020F4
:104A3000252F000800000000B13F00084C000020B6
:104A4000ED27000864000020151800080000000091
:104A5000991A00087C000020290D000800000000C1
:104A6000791C0008940000208B450008AC00002051
:104A70008B450008C40000208B450008DC000020A6
:084A80008B450008F400002042
:104A88000000000031430008000000003143000826
:104A98000000000031430008000000003143000816
:104AA8000000000031430008000000003143000806
:104AB8004C000020394000084C0000202F4000081E
:104AC8004C000020254000084C0000201B40000836
:104AD8004C0000201140000800000000314300088D
:104AE80000000000314300080000000031430008C6
:104AF80000000000314300080000000031430008B6
:104B080000000000314300080000000031430008A5
:104B18000000000031430008000000003143000895
:104B28000000000031430008000000003143000885
:104B38004C00002007400008000000003143000836
:104B48000000000031430008000000003143000865
:104B58000000000031430008000000003143000855
:104B68000000000031430008000000003143000845
:104B78000000000031430008000000003143000835
:104B88000000000031430008000000003143000825
:104B98000000000031430008000000003143000815
:104BA8000000000031430008000000003143000805
:104BB80000000000314300080000000031430008F5
:104BC80000000000314300084C000020FD3F0008B1
:104BD80000000000314300080000000031430008D5
:104BE800000000003143000894000020FD41000847
:104BF80094000020694200080000000031430008CA
:104C080000000000314300080000000031430008A4
:104C18000000000031430008000000003143000894
:104C28000000000031430008000000003143000884
:104C38000000000031430008000000003143000874
:104C48000000000031430008000000003143000864
:104C58000000000031430008000000003143000854
:104C68000000000031430008000000003143000844
:104C7800444F000803000000F5500008030000003E
:104C8800B24F000803000000B354000803000000FE
:104C98005C560008030000007C5500080300000073
:104CA800484D000838030020545000080100000057
:104CB8000100FF7FFF7FFF7FFF7F0100FF7FFF7FF6
:104CC800FF7FFF7F0100FF7FFF7FFF7FFF7F0100E6
:104CD800FF7FFF7FFF7FFF7F0100FF7FFF7FFF7F59
:104CE800FF7FFF7FFF7FFF7FFF7F0100FF7FFF7F49
:104CF800FF7FFF7FFF7FFF7FFF7FFF7FFF7FFF7FBC
:0C4D0800FF7FFF7FFF7FFF7FFF7FFF7FAB
:104D1400000000000100000002000000000000008C
:104D2400035000080B5000080000000000000000C1
:104D34000000000013500008175000081B50000822
:104D44001F50000800000000F117000800000000D8
:104D540000000000CD170008C1170008D91700088B
:104D64009D170008400300208E040020010000006D
:104D7400F4000020DC000020C4000020000000003B
:104D8400000000000000000000000000AC00002053
:104D94000000000000000000000000000B430008B9
:104DA400000C005806000000000010000000002065
:104DB400FF000000D11B0008A94200089B42000824
:104DC400A1420008B14200080000002000000000D9
:104DD40000000B0602000000E04D0008000000087F
:104DE40000550008200002070000002008550008B4
:104DF4001C000B11FFFF0000000000480000000031
:104E04000100000001000000FFFF00000004004852
:104E1400010000000100000002000000FFFF00008C
:104E24000008004802000000010000000400000027
:104E3400FFFF0000001C0048070000000100000004
:104E4400800000001745000855430008614300082E
:104E5400734300087D430008874300083526000893
:104E64009543000800000000080200000002000052
:104E74000803000000000000008000400000000063
:104E84000400000001000000000000000000000019
:104E94006C4E000802000000E34500089545000838
:104EA400A7450008D92800080346000801000000AF
:104EB40003000000050000000100000001000000E4
:104EC400060000000A0000002000000002000000AC
:104ED4000400000008000000100000004000000072
:104EE400800000000001000000020000204A0008C9
:104EF400504A0008584A0008884A0008884A0008AE
:104F0400F5FFFFFF0D5600081B5600082F5600083A
:104F14003E5600084A560008001000000030576151
:104F24006974696E6720666F72204350553220742D
:104F34006F20626F6F742066726F6D5B25585D0021
:104F44006465616D6F6E00286E696C29006C6F6713
:104F540067696E67003C6C6F675F73747264757029
:104F640020616C6C6F63206661696C65643E0061EE
:104F74007267756D656E7420256420696E20736F89
:104F840075726365202573206C6F67206D6573737C
:104F94006167652022257322206D697373696E67CA
:104FA4006C6F675F73747264757028292E006C6F60
:104FB4006700253032782000202020007C00256303
:104FC400001B5B306D0025733A200025732E005BB7
:104FD4002530386C755D20005B253032643A25300D
:104FE40032643A253032642E253033642C25303334
:104FF400645D20002573003C25733E20000D001BDA
:105004005B313B33316D001B5B313B33336D0065EA
:1050140072720077726E00696E66006462670020C7
:105024006D657373616765732064726F7070656416
:10503400202D2D2D0D0A1B5B306D001B5B313B3386
:10504400316D2D2D2D20004C50554152545F3100AF
:105054006C6F675F6261636B656E645F75617274C8
:1050640000696E746572727570742D636F6E7472FC
:105074006F6C6C6572403538303030383030000633
:105084000708090A16161616162929292929295343
:10509400544D33325F434C4B5F5243430073797337
:1050A4005F636C6F636B00696E76616C6964207317
:1050B400656E64696E67206275666665722E006946
:1050C4006E76616C696420627566666572207369C8
:1050D4007A6520282564290D0A00696E76616C6959
:1050E4006420696420282564290D0A00495043433B
:1050F4000069706D5F73746D33325F697063630050
:1051040072302F61313A20203078253038782020D1
:1051140072312F61323A20203078253038782020BF
:1051240072322F61333A202030782530387800727B
:10513400332F61343A20203078253038782072318A
:10514400322F69703A202030782530387820723137
:10515400342F6C723A20203078253038780020784B
:105164007073723A202030782530387800466175A3
:105174006C74696E6720696E737472756374696F99
:105184006E206164647265737320287231352F70E8
:1051940063293A20307825303878002A2A2A2A2AA6
:1051A400204D5055204641554C54202A2A2A2A2A5B
:1051B400002020537461636B696E67206572726F9F
:1051C400722028636F6E7465787420617265612043
:1051D4006D69676874206265206E6F742076616CF7
:1051E400696429002020556E737461636B696E676E
:1051F400206572726F7200202044617461204163E3
:10520400636573732056696F6C6174696F6E0020F7
:10521400204D4D46415220416464726573733A20B7
:1052240030782578002020496E7374727563746930
:105234006F6E204163636573732056696F6C61748C
:10524400696F6E002020466C6F6174696E672D7003
:105254006F696E74206C617A79207374617465204F
:10526400707265736572766174696F6E20657272AF
:105274006F72002A2A2A2A2A20555341474520467C
:1052840041554C54202A2A2A2A2A0020204469768F
:105294006973696F6E206279207A65726F002020CD
:1052A400556E616C69676E6564206D656D6F7279AA
:1052B400206163636573730020204E6F20636F70F9
:1052C400726F636573736F7220696E737472756342
:1052D40074696F6E73002020496C6C6567616C2083
:1052E4006C6F6164206F66204558435F5245545586
:1052F400524E20696E746F205043002020496C6C1C
:105304006567616C20757365206F6620746865201D
:1053140045505352002020417474656D707420749C
:105324006F206578656375746520756E646566695C
:105334006E656420696E737472756374696F6E0050
:105344002A2A2A2A2A20425553204641554C5420C1
:105354002A2A2A2A2A002020537461636B696E6703
:10536400206572726F7200202050726563697365E4
:10537400206461746120627573206572726F7200BB
:1053840020204246415220416464726573733A207E
:1053940030782578002020496D70726563697365E3
:1053A400206461746120627573206572726F72008B
:1053B4002020496E737472756374696F6E20627510
:1053C40073206572726F7200535053454C20696E9E
:1053D40020746872656164206D6F646520646F6514
:1053E40073206E6F7420696E646963617465205004
:1053F4005350002A2A2A2A2A20484152442046414E
:10540400554C54202A2A2A2A2A0020204275732027
:105414006661756C74206F6E20766563746F72209C
:105424007461626C65207265616400202046617558
:105434006C7420657363616C6174696F6E2028738A
:1054440065652062656C6F7729002A2A2A2A2A203A
:105454004465627567206D6F6E69746F722065783C
:1054640063657074696F6E202A2A2A2A2A0052659D
:1054740073657276656420457863657074696F6ED0
:1054840020280053707572696F757320696E746596
:105494007272757074202849525120002A2A2A2ACF
:1054A4002A20257320256429202A2A2A2A2A006DE5
:1054B400707500506172746974696F6E2025753A55
:1054C4002073616E69747920636865636B2066611B
:1054D400696C65642E004661696C656420746F2094
:1054E400616C6C6F63617465206E6577204D5055F7
:1054F40020726567696F6E2025750A00464C41531A
:10550400485F30005352414D5F30004750494F4887
:10551400004750494F43004750494F4200475049C4
:105524004F41004661696C65642063616C6C206363
:105534006C6F636B5F636F6E74726F6C5F676574BF
:105544005F7261746500496E76616C696420706194
:10555400726974792073657474696E672027256491
:10556400272E44656661756C74696E6720746F20BC
:10557400276E6F6E65272E00756172745F73746D8C
:1055840033320048616C74696E6720737973746593
:105594006D00556E6B6E6F776E206572726F720060
:1055A400756E6B6E6F776E003E3E3E205A455048D6
:1055B400595220464154414C204552524F522025C5
:1055C400643A202573206F6E2043505520256400D3
:1055D4004661756C7420647572696E6720696E74B7
:1055E4006572727570742068616E646C696E670AA6
:1055F4000043757272656E74207468726561643AF2
:105604002025702028257329004350552065786390
:10561400657074696F6E00556E68616E646C656464
:1056240020696E7465727275707400537461636B73
:10563400206F766572666C6F77004B65726E656C71
:10564400206F6F7073004B65726E656C2070616EB5
:105654006963006D61696E006F73007A65706879C3
:10566400722D76322E352E302D333430342D67346E
:105674003537663361343664366362002A2A2A2059
:10568400426F6F74696E67205A6570687972204F33
:1056940053206275696C64202573202573202A2A9F
:1056A4002A0A00002020202020202020202828282A
:1056B40028282020202020202020202020202020D6
:1056C400202020208810101010101010101010101E
:1056D400101010100404040404040404040410103E
:1056E40010101010104141414141410101010101DB
:1056F4000101010101010101010101010101011087
:1057040010101010104242424242420202020202AF
:105714000202020202020202020202020202021057
:105724001010102000000000000000000000000025
:105734000000000000000000000000000000000065
:105744000000000000000000000000000000000055
:105754000000000000000000000000000000000045
:105764000000000000000000000000000000000035
:105774000000000000000000000000000000000025
:105784000000000000000000000000000000000015
:105794000000000000000000000000000000000005
:0457A4000000000001
:1057A800AD3900089B3A00084340000867410008EB
:1057B8000000000089190008000000004F4300089D
:1057C80000C201000000000000093D002C0000207C
:0457D8002C00002081
:1057DC00935000080000000008000020D8030020AF
:1057EC00000000000A4D0008655000080000000091
:1057FC00000000005403002058030020024D000854
:10580C004B5000087C4E00089C4E00085C040020A5
:10581C0020000020F24C0008A150000800000000FD
:10582C0000000000DC03002000000000EC4C00082D
:10583C00F0500008A04D0008B84D0008F0030020FF
:10584C00F4030020E04C00080F550008344E00080B
:10585C00484E0008180400204C040020D64C0008C8
:10586C0015550008204E0008484E00081004002072
:10587C003C040020CC4C00081B5500080C4E0008C2
:10588C00484E0008140400202C040020C24C0008D0
:10589C0021550008F84D0008484E00080C04002063
:0858AC001C040020B84C0008A8
:1058B4000C0100200C010020000000000100000089
:0400000508001F814F
:00000001FF
